{
  "contractName": "Piswapnew",
  "abi": [
    {
      "inputs": [],
      "payable": false,
      "stateMutability": "nonpayable",
      "type": "constructor"
    },
    {
      "constant": true,
      "inputs": [],
      "name": "LQPIS",
      "outputs": [
        {
          "internalType": "contract IERC20",
          "name": "",
          "type": "address"
        }
      ],
      "payable": false,
      "stateMutability": "view",
      "type": "function"
    },
    {
      "constant": true,
      "inputs": [],
      "name": "PIS",
      "outputs": [
        {
          "internalType": "contract IERC20",
          "name": "",
          "type": "address"
        }
      ],
      "payable": false,
      "stateMutability": "view",
      "type": "function"
    },
    {
      "constant": true,
      "inputs": [],
      "name": "balancepool15day",
      "outputs": [
        {
          "internalType": "uint256",
          "name": "",
          "type": "uint256"
        }
      ],
      "payable": false,
      "stateMutability": "view",
      "type": "function"
    },
    {
      "constant": true,
      "inputs": [],
      "name": "balancepool30day",
      "outputs": [
        {
          "internalType": "uint256",
          "name": "",
          "type": "uint256"
        }
      ],
      "payable": false,
      "stateMutability": "view",
      "type": "function"
    },
    {
      "constant": true,
      "inputs": [],
      "name": "balancepool3day",
      "outputs": [
        {
          "internalType": "uint256",
          "name": "",
          "type": "uint256"
        }
      ],
      "payable": false,
      "stateMutability": "view",
      "type": "function"
    },
    {
      "constant": true,
      "inputs": [],
      "name": "hasPool15day",
      "outputs": [
        {
          "internalType": "bool",
          "name": "",
          "type": "bool"
        }
      ],
      "payable": false,
      "stateMutability": "view",
      "type": "function"
    },
    {
      "constant": true,
      "inputs": [],
      "name": "hasPool30day",
      "outputs": [
        {
          "internalType": "bool",
          "name": "",
          "type": "bool"
        }
      ],
      "payable": false,
      "stateMutability": "view",
      "type": "function"
    },
    {
      "constant": true,
      "inputs": [],
      "name": "hasPool3day",
      "outputs": [
        {
          "internalType": "bool",
          "name": "",
          "type": "bool"
        }
      ],
      "payable": false,
      "stateMutability": "view",
      "type": "function"
    },
    {
      "constant": true,
      "inputs": [],
      "name": "lasttimeStake15day",
      "outputs": [
        {
          "internalType": "uint256",
          "name": "",
          "type": "uint256"
        }
      ],
      "payable": false,
      "stateMutability": "view",
      "type": "function"
    },
    {
      "constant": true,
      "inputs": [],
      "name": "lasttimeStake30day",
      "outputs": [
        {
          "internalType": "uint256",
          "name": "",
          "type": "uint256"
        }
      ],
      "payable": false,
      "stateMutability": "view",
      "type": "function"
    },
    {
      "constant": true,
      "inputs": [],
      "name": "lasttimeStake3day",
      "outputs": [
        {
          "internalType": "uint256",
          "name": "",
          "type": "uint256"
        }
      ],
      "payable": false,
      "stateMutability": "view",
      "type": "function"
    },
    {
      "constant": true,
      "inputs": [
        {
          "internalType": "uint256",
          "name": "",
          "type": "uint256"
        }
      ],
      "name": "listCollection",
      "outputs": [
        {
          "internalType": "address",
          "name": "staker",
          "type": "address"
        },
        {
          "internalType": "uint256",
          "name": "balance",
          "type": "uint256"
        },
        {
          "internalType": "uint256",
          "name": "timecollect",
          "type": "uint256"
        }
      ],
      "payable": false,
      "stateMutability": "view",
      "type": "function"
    },
    {
      "constant": true,
      "inputs": [
        {
          "internalType": "uint256",
          "name": "",
          "type": "uint256"
        }
      ],
      "name": "liststake",
      "outputs": [
        {
          "internalType": "string",
          "name": "stakeID",
          "type": "string"
        },
        {
          "internalType": "address",
          "name": "staker",
          "type": "address"
        },
        {
          "internalType": "uint256",
          "name": "amount",
          "type": "uint256"
        },
        {
          "internalType": "uint256",
          "name": "ratio",
          "type": "uint256"
        },
        {
          "internalType": "uint256",
          "name": "timewithdraw",
          "type": "uint256"
        },
        {
          "internalType": "uint256",
          "name": "choice",
          "type": "uint256"
        },
        {
          "internalType": "uint256",
          "name": "reward70",
          "type": "uint256"
        },
        {
          "internalType": "uint256",
          "name": "reward30",
          "type": "uint256"
        },
        {
          "internalType": "bool",
          "name": "withdrawstatus",
          "type": "bool"
        },
        {
          "internalType": "uint256",
          "name": "constamount",
          "type": "uint256"
        }
      ],
      "payable": false,
      "stateMutability": "view",
      "type": "function"
    },
    {
      "constant": true,
      "inputs": [],
      "name": "openpool",
      "outputs": [
        {
          "internalType": "uint256",
          "name": "",
          "type": "uint256"
        }
      ],
      "payable": false,
      "stateMutability": "view",
      "type": "function"
    },
    {
      "constant": true,
      "inputs": [],
      "name": "owner",
      "outputs": [
        {
          "internalType": "address",
          "name": "",
          "type": "address"
        }
      ],
      "payable": false,
      "stateMutability": "view",
      "type": "function"
    },
    {
      "constant": true,
      "inputs": [],
      "name": "ratiopool15day",
      "outputs": [
        {
          "internalType": "uint256",
          "name": "",
          "type": "uint256"
        }
      ],
      "payable": false,
      "stateMutability": "view",
      "type": "function"
    },
    {
      "constant": true,
      "inputs": [],
      "name": "ratiopool30day",
      "outputs": [
        {
          "internalType": "uint256",
          "name": "",
          "type": "uint256"
        }
      ],
      "payable": false,
      "stateMutability": "view",
      "type": "function"
    },
    {
      "constant": true,
      "inputs": [],
      "name": "ratiopool3day",
      "outputs": [
        {
          "internalType": "uint256",
          "name": "",
          "type": "uint256"
        }
      ],
      "payable": false,
      "stateMutability": "view",
      "type": "function"
    },
    {
      "constant": true,
      "inputs": [],
      "name": "time15day",
      "outputs": [
        {
          "internalType": "uint256",
          "name": "",
          "type": "uint256"
        }
      ],
      "payable": false,
      "stateMutability": "view",
      "type": "function"
    },
    {
      "constant": true,
      "inputs": [],
      "name": "time30day",
      "outputs": [
        {
          "internalType": "uint256",
          "name": "",
          "type": "uint256"
        }
      ],
      "payable": false,
      "stateMutability": "view",
      "type": "function"
    },
    {
      "constant": true,
      "inputs": [],
      "name": "time3day",
      "outputs": [
        {
          "internalType": "uint256",
          "name": "",
          "type": "uint256"
        }
      ],
      "payable": false,
      "stateMutability": "view",
      "type": "function"
    },
    {
      "constant": true,
      "inputs": [],
      "name": "timeendpool",
      "outputs": [
        {
          "internalType": "uint256",
          "name": "",
          "type": "uint256"
        }
      ],
      "payable": false,
      "stateMutability": "view",
      "type": "function"
    },
    {
      "constant": true,
      "inputs": [],
      "name": "totalpool15day",
      "outputs": [
        {
          "internalType": "uint256",
          "name": "",
          "type": "uint256"
        }
      ],
      "payable": false,
      "stateMutability": "view",
      "type": "function"
    },
    {
      "constant": true,
      "inputs": [],
      "name": "totalpool30day",
      "outputs": [
        {
          "internalType": "uint256",
          "name": "",
          "type": "uint256"
        }
      ],
      "payable": false,
      "stateMutability": "view",
      "type": "function"
    },
    {
      "constant": true,
      "inputs": [],
      "name": "totalpool3day",
      "outputs": [
        {
          "internalType": "uint256",
          "name": "",
          "type": "uint256"
        }
      ],
      "payable": false,
      "stateMutability": "view",
      "type": "function"
    },
    {
      "constant": true,
      "inputs": [
        {
          "internalType": "address",
          "name": "",
          "type": "address"
        }
      ],
      "name": "totalstake",
      "outputs": [
        {
          "internalType": "uint256",
          "name": "",
          "type": "uint256"
        }
      ],
      "payable": false,
      "stateMutability": "view",
      "type": "function"
    },
    {
      "constant": true,
      "inputs": [
        {
          "internalType": "address",
          "name": "",
          "type": "address"
        }
      ],
      "name": "user",
      "outputs": [
        {
          "internalType": "bool",
          "name": "",
          "type": "bool"
        }
      ],
      "payable": false,
      "stateMutability": "view",
      "type": "function"
    },
    {
      "constant": false,
      "inputs": [
        {
          "internalType": "string",
          "name": "stakeID",
          "type": "string"
        },
        {
          "internalType": "uint256",
          "name": "amount",
          "type": "uint256"
        },
        {
          "internalType": "uint256",
          "name": "choice",
          "type": "uint256"
        },
        {
          "internalType": "address",
          "name": "contractref",
          "type": "address"
        },
        {
          "internalType": "address",
          "name": "sponsor",
          "type": "address"
        }
      ],
      "name": "stake",
      "outputs": [],
      "payable": false,
      "stateMutability": "nonpayable",
      "type": "function"
    },
    {
      "constant": false,
      "inputs": [
        {
          "internalType": "address",
          "name": "contractref",
          "type": "address"
        }
      ],
      "name": "collection",
      "outputs": [],
      "payable": false,
      "stateMutability": "nonpayable",
      "type": "function"
    },
    {
      "constant": false,
      "inputs": [
        {
          "internalType": "address",
          "name": "contractref",
          "type": "address"
        },
        {
          "internalType": "string",
          "name": "stakeID",
          "type": "string"
        },
        {
          "internalType": "uint256",
          "name": "choice",
          "type": "uint256"
        }
      ],
      "name": "withdraw",
      "outputs": [],
      "payable": false,
      "stateMutability": "nonpayable",
      "type": "function"
    },
    {
      "constant": false,
      "inputs": [
        {
          "internalType": "string",
          "name": "stakeID",
          "type": "string"
        },
        {
          "internalType": "address",
          "name": "contractref",
          "type": "address"
        }
      ],
      "name": "withdraw30",
      "outputs": [],
      "payable": false,
      "stateMutability": "nonpayable",
      "type": "function"
    },
    {
      "constant": false,
      "inputs": [],
      "name": "openWithdraw",
      "outputs": [],
      "payable": false,
      "stateMutability": "nonpayable",
      "type": "function"
    },
    {
      "constant": true,
      "inputs": [],
      "name": "getListstake",
      "outputs": [
        {
          "components": [
            {
              "internalType": "string",
              "name": "stakeID",
              "type": "string"
            },
            {
              "internalType": "address",
              "name": "staker",
              "type": "address"
            },
            {
              "internalType": "uint256",
              "name": "amount",
              "type": "uint256"
            },
            {
              "internalType": "uint256",
              "name": "ratio",
              "type": "uint256"
            },
            {
              "internalType": "uint256",
              "name": "timewithdraw",
              "type": "uint256"
            },
            {
              "internalType": "uint256",
              "name": "choice",
              "type": "uint256"
            },
            {
              "internalType": "uint256",
              "name": "reward70",
              "type": "uint256"
            },
            {
              "internalType": "uint256",
              "name": "reward30",
              "type": "uint256"
            },
            {
              "internalType": "bool",
              "name": "withdrawstatus",
              "type": "bool"
            },
            {
              "internalType": "uint256",
              "name": "constamount",
              "type": "uint256"
            }
          ],
          "internalType": "struct Piswapnew.Liststake[]",
          "name": "",
          "type": "tuple[]"
        }
      ],
      "payable": false,
      "stateMutability": "view",
      "type": "function"
    },
    {
      "constant": true,
      "inputs": [],
      "name": "getListCollection",
      "outputs": [
        {
          "components": [
            {
              "internalType": "address",
              "name": "staker",
              "type": "address"
            },
            {
              "internalType": "uint256",
              "name": "balance",
              "type": "uint256"
            },
            {
              "internalType": "uint256",
              "name": "timecollect",
              "type": "uint256"
            }
          ],
          "internalType": "struct Piswapnew.ListCollection[]",
          "name": "",
          "type": "tuple[]"
        }
      ],
      "payable": false,
      "stateMutability": "view",
      "type": "function"
    },
    {
      "constant": false,
      "inputs": [
        {
          "internalType": "uint256",
          "name": "amount",
          "type": "uint256"
        }
      ],
      "name": "withdrawOwner",
      "outputs": [],
      "payable": false,
      "stateMutability": "nonpayable",
      "type": "function"
    },
    {
      "constant": false,
      "inputs": [
        {
          "internalType": "uint256",
          "name": "amount",
          "type": "uint256"
        }
      ],
      "name": "withdrawOwnerlp",
      "outputs": [],
      "payable": false,
      "stateMutability": "nonpayable",
      "type": "function"
    }
  ],
  "bytecode": "0x6080604052650cd643cc58006001556514bc89e6a0006002556519ac8798b000600355635fbbf48a600455635fbbefda60055561012c600655610258600755610384600855603c60055460045403816200005557fe5b04600154816200006157fe5b04600955603c60055460045403816200007657fe5b04600254816200008257fe5b04600a55603c60055460045403816200009757fe5b0460035481620000a357fe5b04600b557331ffe9a7859d12c335570db37b7fdf198cfbe185600c60006101000a81548173ffffffffffffffffffffffffffffffffffffffff021916908373ffffffffffffffffffffffffffffffffffffffff1602179055507377483f98845affd4b7c8e6d73a01e33a74bbe4e7600d60006101000a81548173ffffffffffffffffffffffffffffffffffffffff021916908373ffffffffffffffffffffffffffffffffffffffff1602179055506000601255600060135560006014556005546016556005546017556005546018553480156200017f57600080fd5b50336000806101000a81548173ffffffffffffffffffffffffffffffffffffffff021916908373ffffffffffffffffffffffffffffffffffffffff16021790555061368180620001d06000396000f3fe608060405234801561001057600080fd5b506004361061021c5760003560e01c806386bf974c11610125578063b96affbc116100ad578063e94886d21161007c578063e94886d2146105e4578063e9c7e5b214610600578063eea367701461061e578063f0b5afcc1461063c578063f8cf72c11461066e5761021c565b8063b96affbc1461056e578063c4c9859e1461058c578063cc3b4e1d146105aa578063ccd65652146105c85761021c565b8063a2665756116100f4578063a2665756146104bd578063a2bc1d12146104db578063ace2d59d146104f9578063adc99ccb14610517578063af92c45e146105355761021c565b806386bf974c146104475780638da5cb5b146104655780638fb13f971461048357806399d34fad146104a15761021c565b8063567ae7a1116101a8578063734db00611610177578063734db006146103a15780637480e3b2146103d1578063788e62aa146103ef57806381e7e20e1461040d578063845105e21461043d5761021c565b8063567ae7a11461032b57806363db5e22146103495780636b80a873146103675780636ef98b21146103855761021c565b80631916e6dd116101ef5780631916e6dd146102995780631f6eafc5146102b757806331cbf510146102d35780633608c376146102ef578063391c09371461030d5761021c565b806301ef7b31146102215780630396e3a71461023f5780630a43b4091461025d5780630aa8edff1461027b575b600080fd5b61022961068c565b60405161023691906131d8565b60405180910390f35b61024761069f565b60405161025491906133d1565b60405180910390f35b6102656106a5565b60405161027291906133d1565b60405180910390f35b6102836106ab565b60405161029091906133d1565b60405180910390f35b6102a16106b1565b6040516102ae91906131b6565b60405180910390f35b6102d160048036036102cc9190810190612918565b61086a565b005b6102ed60048036036102e891908101906129fc565b610f03565b005b6102f761178d565b60405161030491906133d1565b60405180910390f35b610315611793565b60405161032291906131f3565b60405180910390f35b6103336117b9565b60405161034091906133d1565b60405180910390f35b6103516117bf565b60405161035e91906131d8565b60405180910390f35b61036f6117d2565b60405161037c91906133d1565b60405180910390f35b61039f600480360361039a9190810190612a8b565b6117d8565b005b6103bb60048036036103b691908101906128ef565b61191a565b6040516103c891906133d1565b60405180910390f35b6103d9611932565b6040516103e691906133d1565b60405180910390f35b6103f7611938565b60405161040491906133d1565b60405180910390f35b610427600480360361042291908101906128ef565b61193e565b60405161043491906131d8565b60405180910390f35b61044561195e565b005b61044f611a0a565b60405161045c91906133d1565b60405180910390f35b61046d611a10565b60405161047a91906130c7565b60405180910390f35b61048b611a35565b60405161049891906133d1565b60405180910390f35b6104bb60048036036104b69190810190612a8b565b611a3b565b005b6104c5611b7d565b6040516104d291906133d1565b60405180910390f35b6104e3611b83565b6040516104f091906131f3565b60405180910390f35b610501611ba9565b60405161050e91906131d8565b60405180910390f35b61051f611bbc565b60405161052c9190613194565b60405180910390f35b61054f600480360361054a9190810190612a8b565b611c85565b6040516105659a9998979695949392919061320e565b60405180910390f35b610576611dab565b60405161058391906133d1565b60405180910390f35b610594611db1565b6040516105a191906133d1565b60405180910390f35b6105b2611db7565b6040516105bf91906133d1565b60405180910390f35b6105e260048036036105dd91908101906129a8565b611dbd565b005b6105fe60048036036105f991908101906128ef565b6120db565b005b610608612739565b60405161061591906133d1565b60405180910390f35b61062661273f565b60405161063391906133d1565b60405180910390f35b61065660048036036106519190810190612a8b565b612745565b6040516106659392919061315d565b60405180910390f35b61067661279c565b60405161068391906133d1565b60405180910390f35b601560009054906101000a900460ff1681565b60135481565b60095481565b60025481565b60606010805480602002602001604051908101604052809291908181526020016000905b8282101561086157838290600052602060002090600a020160405180610140016040529081600082018054600181600116156101000203166002900480601f0160208091040260200160405190810160405280929190818152602001828054600181600116156101000203166002900480156107925780601f1061076757610100808354040283529160200191610792565b820191906000526020600020905b81548152906001019060200180831161077557829003601f168201915b505050505081526020016001820160009054906101000a900473ffffffffffffffffffffffffffffffffffffffff1673ffffffffffffffffffffffffffffffffffffffff1673ffffffffffffffffffffffffffffffffffffffff1681526020016002820154815260200160038201548152602001600482015481526020016005820154815260200160068201548152602001600782015481526020016008820160009054906101000a900460ff16151515158152602001600982015481525050815260200190600101906106d5565b50505050905090565b600083905042600554106108b3576040517f08c379a00000000000000000000000000000000000000000000000000000000081526004016108aa90613391565b60405180910390fd5b600080905060006004544211156108ce5760045490506108d2565b4290505b60008090505b601080549050811015610ab2578580519060200120601082815481106108fa57fe5b90600052602060002090600a020160000160405161091891906130b0565b604051809103902014801561094a5750846010828154811061093657fe5b90600052602060002090600a020160050154145b80156109bf57503373ffffffffffffffffffffffffffffffffffffffff166010828154811061097557fe5b90600052602060002090600a020160010160009054906101000a900473ffffffffffffffffffffffffffffffffffffffff1673ffffffffffffffffffffffffffffffffffffffff16145b80156109e8575042601082815481106109d457fe5b90600052602060002090600a020160040154105b8015610a2357506000151560108281548110610a0057fe5b90600052602060002090600a020160080160009054906101000a900460ff161515145b15610aa55760108181548110610a3557fe5b90600052602060002090600a0201600201549250600060108281548110610a5857fe5b90600052602060002090600a020160020181905550600160108281548110610a7c57fe5b90600052602060002090600a020160080160006101000a81548160ff0219169083151502179055505b80806001019150506108d8565b5060008211610af6576040517f08c379a0000000000000000000000000000000000000000000000000000000008152600401610aed90613311565b60405180910390fd5b600c60009054906101000a900473ffffffffffffffffffffffffffffffffffffffff1673ffffffffffffffffffffffffffffffffffffffff1663a9059cbb33846040518363ffffffff1660e01b8152600401610b53929190613134565b602060405180830381600087803b158015610b6d57600080fd5b505af1158015610b81573d6000803e3d6000fd5b505050506040513d601f19601f82011682018060405250610ba5919081019061297f565b506000809050600080905060008090506001871415610bd4576016549250600954915084601254039050610c10565b6002871415610bf3576017549250600a54915084601354039050610c0f565b6003871415610c0e576018549250600b549150846014540390505b5b5b60008090505b601080549050811015610ea5578760108281548110610c3157fe5b90600052602060002090600a020160050154148015610c6e57508360108281548110610c5957fe5b90600052602060002090600a02016004015410155b15610e985760008090508560108381548110610c8657fe5b90600052602060002090600a0201600401541115610ca657859050610cc8565b60108281548110610cb357fe5b90600052602060002090600a02016004015490505b61025885820360108481548110610cdb57fe5b90600052602060002090600a0201600301546007020281610cf857fe5b0460108381548110610d0657fe5b90600052602060002090600a02016006016000828254019250508190555061025885820360108481548110610d3757fe5b90600052602060002090600a0201600301546003020281610d5457fe5b0460108381548110610d6257fe5b90600052602060002090600a0201600701600082825401925050819055506000831415610db257600060108381548110610d9857fe5b90600052602060002090600a020160030181905550610dff565b8260108381548110610dc057fe5b90600052602060002090600a020160020154850281610ddb57fe5b0460108381548110610de957fe5b90600052602060002090600a0201600301819055505b3373ffffffffffffffffffffffffffffffffffffffff1660108381548110610e2357fe5b90600052602060002090600a020160010160009054906101000a900473ffffffffffffffffffffffffffffffffffffffff1673ffffffffffffffffffffffffffffffffffffffff161415610e9657600060108381548110610e8057fe5b90600052602060002090600a0201600301819055505b505b8080600101915050610c16565b506001871415610ec2578360168190555080601281905550610ef8565b6002871415610ede578360178190555080601381905550610ef7565b6003871415610ef65783601881905550806014819055505b5b5b505050505050505050565b600082905060008511610f4b576040517f08c379a0000000000000000000000000000000000000000000000000000000008152600401610f42906133b1565b60405180910390fd5b4260045411610f8f576040517f08c379a0000000000000000000000000000000000000000000000000000000008152600401610f8690613351565b60405180910390fd5b6001841480610f9e5750600284145b80610fa95750600384145b610fe8576040517f08c379a0000000000000000000000000000000000000000000000000000000008152600401610fdf906132f1565b60405180910390fd5b6001600f60003373ffffffffffffffffffffffffffffffffffffffff1673ffffffffffffffffffffffffffffffffffffffff16815260200190815260200160002060006101000a81548160ff0219169083151502179055506000600c60009054906101000a900473ffffffffffffffffffffffffffffffffffffffff1673ffffffffffffffffffffffffffffffffffffffff166323b872dd3330896040518463ffffffff1660e01b81526004016110a1939291906130fd565b602060405180830381600087803b1580156110bb57600080fd5b505af11580156110cf573d6000803e3d6000fd5b505050506040513d601f19601f820116820180604052506110f3919081019061297f565b5060008090506000809050600080905060008090506000806000905060055442111561112157429050611127565b60055490505b60018b141561116d57601560009054906101000a900460ff169650600654810195508b601260008282540192505081905550601254935060165494506009549250611244565b60028b14156111b357601560019054906101000a900460ff169650600754810195508b60136000828254019250508190555060135493506017549450600a549250611243565b60038b141561124257601560029054906101000a900460ff169650600854810195508b60146000828254019250508190555060145493506018549450600b5492508b600e60003373ffffffffffffffffffffffffffffffffffffffff1673ffffffffffffffffffffffffffffffffffffffff168152602001908152602001600020600082825401925050819055505b5b5b6004548611156112545760045495505b866113bf5760106040518061014001604052808f81526020013373ffffffffffffffffffffffffffffffffffffffff1681526020018e81526020018581526020018881526020018d815260200160008152602001600081526020016000151581526020018e8152509080600181540180825580915050906001820390600052602060002090600a02016000909192909190915060008201518160000190805190602001906113039291906127a2565b5060208201518160010160006101000a81548173ffffffffffffffffffffffffffffffffffffffff021916908373ffffffffffffffffffffffffffffffffffffffff16021790555060408201518160020155606082015181600301556080820151816004015560a0820151816005015560c0820151816006015560e082015181600701556101008201518160080160006101000a81548160ff0219169083151502179055506101208201518160090155505050600196506116f3565b60008090505b601080549050811015611589578b601082815481106113e057fe5b90600052602060002090600a02016005015414801561141c5750856010828154811061140857fe5b90600052602060002090600a020160040154115b1561157c576000809050826010838154811061143457fe5b90600052602060002090600a020160040154111561145457829050611476565b6010828154811061146157fe5b90600052602060002090600a02016004015490505b6102588782036010848154811061148957fe5b90600052602060002090600a02016003015460070202816114a657fe5b04601083815481106114b457fe5b90600052602060002090600a020160060160008282540192505081905550610258878203601084815481106114e557fe5b90600052602060002090600a020160030154600302028161150257fe5b046010838154811061151057fe5b90600052602060002090600a020160070160008282540192505081905550856010838154811061153c57fe5b90600052602060002090600a02016002015486028161155757fe5b046010838154811061156557fe5b90600052602060002090600a020160030181905550505b80806001019150506113c5565b5060106040518061014001604052808f81526020013373ffffffffffffffffffffffffffffffffffffffff1681526020018e8152602001868f8702816115cb57fe5b0481526020018881526020018d815260200160008152602001600081526020016000151581526020018e8152509080600181540180825580915050906001820390600052602060002090600a020160009091929091909150600082015181600001908051906020019061163f9291906127a2565b5060208201518160010160006101000a81548173ffffffffffffffffffffffffffffffffffffffff021916908373ffffffffffffffffffffffffffffffffffffffff16021790555060408201518160020155606082015181600301556080820151816004015560a0820151816005015560c0820151816006015560e082015181600701556101008201518160080160006101000a81548160ff02191690831515021790555061012082015181600901555050505b60018b14156117225786601560006101000a81548160ff0219169083151502179055508060168190555061177e565b60028b14156117515786601560016101000a81548160ff0219169083151502179055508060178190555061177d565b60038b141561177c5786601560026101000a81548160ff021916908315150217905550806018819055505b5b5b50505050505050505050505050565b600b5481565b600c60009054906101000a900473ffffffffffffffffffffffffffffffffffffffff1681565b60185481565b601560019054906101000a900460ff1681565b60045481565b6000809054906101000a900473ffffffffffffffffffffffffffffffffffffffff1673ffffffffffffffffffffffffffffffffffffffff163373ffffffffffffffffffffffffffffffffffffffff1614611867576040517f08c379a000000000000000000000000000000000000000000000000000000000815260040161185e906132b1565b60405180910390fd5b600d60009054906101000a900473ffffffffffffffffffffffffffffffffffffffff1673ffffffffffffffffffffffffffffffffffffffff1663a9059cbb33836040518363ffffffff1660e01b81526004016118c4929190613134565b602060405180830381600087803b1580156118de57600080fd5b505af11580156118f2573d6000803e3d6000fd5b505050506040513d601f19601f82011682018060405250611916919081019061297f565b5050565b600e6020528060005260406000206000915090505481565b60075481565b60035481565b600f6020528060005260406000206000915054906101000a900460ff1681565b6000809054906101000a900473ffffffffffffffffffffffffffffffffffffffff1673ffffffffffffffffffffffffffffffffffffffff163373ffffffffffffffffffffffffffffffffffffffff16146119ed576040517f08c379a00000000000000000000000000000000000000000000000000000000081526004016119e490613331565b60405180910390fd5b6001600060146101000a81548160ff021916908315150217905550565b60175481565b6000809054906101000a900473ffffffffffffffffffffffffffffffffffffffff1681565b60085481565b6000809054906101000a900473ffffffffffffffffffffffffffffffffffffffff1673ffffffffffffffffffffffffffffffffffffffff163373ffffffffffffffffffffffffffffffffffffffff1614611aca576040517f08c379a0000000000000000000000000000000000000000000000000000000008152600401611ac1906132b1565b60405180910390fd5b600c60009054906101000a900473ffffffffffffffffffffffffffffffffffffffff1673ffffffffffffffffffffffffffffffffffffffff1663a9059cbb33836040518363ffffffff1660e01b8152600401611b27929190613134565b602060405180830381600087803b158015611b4157600080fd5b505af1158015611b55573d6000803e3d6000fd5b505050506040513d601f19601f82011682018060405250611b79919081019061297f565b5050565b60055481565b600d60009054906101000a900473ffffffffffffffffffffffffffffffffffffffff1681565b601560029054906101000a900460ff1681565b60606011805480602002602001604051908101604052809291908181526020016000905b82821015611c7c57838290600052602060002090600302016040518060600160405290816000820160009054906101000a900473ffffffffffffffffffffffffffffffffffffffff1673ffffffffffffffffffffffffffffffffffffffff1673ffffffffffffffffffffffffffffffffffffffff1681526020016001820154815260200160028201548152505081526020019060010190611be0565b50505050905090565b60108181548110611c9257fe5b90600052602060002090600a0201600091509050806000018054600181600116156101000203166002900480601f016020809104026020016040519081016040528092919081815260200182805460018160011615610100020316600290048015611d3e5780601f10611d1357610100808354040283529160200191611d3e565b820191906000526020600020905b815481529060010190602001808311611d2157829003601f168201915b5050505050908060010160009054906101000a900473ffffffffffffffffffffffffffffffffffffffff16908060020154908060030154908060040154908060050154908060060154908060070154908060080160009054906101000a900460ff1690806009015490508a565b60145481565b60165481565b600a5481565b600060149054906101000a900460ff16611e0c576040517f08c379a0000000000000000000000000000000000000000000000000000000008152600401611e03906132d1565b60405180910390fd5b60008090505b6010805490508110156120d657828051906020012060108281548110611e3457fe5b90600052602060002090600a0201600001604051611e5291906130b0565b6040518091039020148015611ed057503373ffffffffffffffffffffffffffffffffffffffff1660108281548110611e8657fe5b90600052602060002090600a020160010160009054906101000a900473ffffffffffffffffffffffffffffffffffffffff1673ffffffffffffffffffffffffffffffffffffffff16145b156120c957600082905060008173ffffffffffffffffffffffffffffffffffffffff16639f9a3af9336040518263ffffffff1660e01b8152600401611f1591906130e2565b60206040518083038186803b158015611f2d57600080fd5b505afa158015611f41573d6000803e3d6000fd5b505050506040513d601f19601f82011682018060405250611f659190810190612ab4565b9050600d60009054906101000a900473ffffffffffffffffffffffffffffffffffffffff1673ffffffffffffffffffffffffffffffffffffffff1663a9059cbb338360108781548110611fb457fe5b90600052602060002090600a020160070154016040518363ffffffff1660e01b8152600401611fe4929190613134565b602060405180830381600087803b158015611ffe57600080fd5b505af1158015612012573d6000803e3d6000fd5b505050506040513d601f19601f82011682018060405250612036919081019061297f565b508173ffffffffffffffffffffffffffffffffffffffff1663d46c8da8336040518263ffffffff1660e01b815260040161207091906130e2565b600060405180830381600087803b15801561208a57600080fd5b505af115801561209e573d6000803e3d6000fd5b505050506000601084815481106120b157fe5b90600052602060002090600a02016007018190555050505b8080600101915050611e12565b505050565b60008190504260055410612124576040517f08c379a000000000000000000000000000000000000000000000000000000000815260040161211b90613391565b60405180910390fd5b600f60003373ffffffffffffffffffffffffffffffffffffffff1673ffffffffffffffffffffffffffffffffffffffff16815260200190815260200160002060009054906101000a900460ff166121b0576040517f08c379a00000000000000000000000000000000000000000000000000000000081526004016121a790613371565b60405180910390fd5b600080905060006004544211156121cb5760045490506121cf565b4290505b60008090505b6010805490508110156124755760008090506001601083815481106121f657fe5b90600052602060002090600a0201600501541415612218576016549050612278565b60026010838154811061222757fe5b90600052602060002090600a0201600501541415612249576017549050612277565b60036010838154811061225857fe5b90600052602060002090600a02016005015414156122765760185490505b5b5b806010838154811061228657fe5b90600052602060002090600a02016004015411156123ad57600080905083601084815481106122b157fe5b90600052602060002090600a02016004015411156122d1578390506122f3565b601083815481106122de57fe5b90600052602060002090600a02016004015490505b6102588282036010858154811061230657fe5b90600052602060002090600a020160030154600702028161232357fe5b046010848154811061233157fe5b90600052602060002090600a0201600601600082825401925050819055506102588282036010858154811061236257fe5b90600052602060002090600a020160030154600302028161237f57fe5b046010848154811061238d57fe5b90600052602060002090600a020160070160008282540192505081905550505b3373ffffffffffffffffffffffffffffffffffffffff16601083815481106123d157fe5b90600052602060002090600a020160010160009054906101000a900473ffffffffffffffffffffffffffffffffffffffff1673ffffffffffffffffffffffffffffffffffffffff161415612467576010828154811061242c57fe5b90600052602060002090600a0201600601548401935060006010838154811061245157fe5b90600052602060002090600a0201600601819055505b5080806001019150506121d5565b508060188190556017819055601681905550600082116124ca576040517f08c379a00000000000000000000000000000000000000000000000000000000081526004016124c190613371565b60405180910390fd5b60008373ffffffffffffffffffffffffffffffffffffffff166305c67d67336040518263ffffffff1660e01b815260040161250591906130e2565b60206040518083038186803b15801561251d57600080fd5b505afa158015612531573d6000803e3d6000fd5b505050506040513d601f19601f820116820180604052506125559190810190612ab4565b9050600d60009054906101000a900473ffffffffffffffffffffffffffffffffffffffff1673ffffffffffffffffffffffffffffffffffffffff1663a9059cbb338386016040518363ffffffff1660e01b81526004016125b6929190613134565b602060405180830381600087803b1580156125d057600080fd5b505af11580156125e4573d6000803e3d6000fd5b505050506040513d601f19601f82011682018060405250612608919081019061297f565b508373ffffffffffffffffffffffffffffffffffffffff1663bd051844336040518263ffffffff1660e01b815260040161264291906130e2565b600060405180830381600087803b15801561265c57600080fd5b505af1158015612670573d6000803e3d6000fd5b50505050601160405180606001604052803373ffffffffffffffffffffffffffffffffffffffff1681526020018386018152602001428152509080600181540180825580915050906001820390600052602060002090600302016000909192909190915060008201518160000160006101000a81548173ffffffffffffffffffffffffffffffffffffffff021916908373ffffffffffffffffffffffffffffffffffffffff16021790555060208201518160010155604082015181600201555050505050505050565b60125481565b60015481565b6011818154811061275257fe5b90600052602060002090600302016000915090508060000160009054906101000a900473ffffffffffffffffffffffffffffffffffffffff16908060010154908060020154905083565b60065481565b828054600181600116156101000203166002900490600052602060002090601f016020900481019282601f106127e357805160ff1916838001178555612811565b82800160010185558215612811579182015b828111156128105782518255916020019190600101906127f5565b5b50905061281e9190612822565b5090565b61284491905b80821115612840576000816000905550600101612828565b5090565b90565b600081359050612856816135f9565b92915050565b60008151905061286b81613610565b92915050565b600082601f83011261288257600080fd5b813561289561289082613419565b6133ec565b915080825260208301602083018583830111156128b157600080fd5b6128bc8382846135a6565b50505092915050565b6000813590506128d481613627565b92915050565b6000815190506128e981613627565b92915050565b60006020828403121561290157600080fd5b600061290f84828501612847565b91505092915050565b60008060006060848603121561292d57600080fd5b600061293b86828701612847565b935050602084013567ffffffffffffffff81111561295857600080fd5b61296486828701612871565b9250506040612975868287016128c5565b9150509250925092565b60006020828403121561299157600080fd5b600061299f8482850161285c565b91505092915050565b600080604083850312156129bb57600080fd5b600083013567ffffffffffffffff8111156129d557600080fd5b6129e185828601612871565b92505060206129f285828601612847565b9150509250929050565b600080600080600060a08688031215612a1457600080fd5b600086013567ffffffffffffffff811115612a2e57600080fd5b612a3a88828901612871565b9550506020612a4b888289016128c5565b9450506040612a5c888289016128c5565b9350506060612a6d88828901612847565b9250506080612a7e88828901612847565b9150509295509295909350565b600060208284031215612a9d57600080fd5b6000612aab848285016128c5565b91505092915050565b600060208284031215612ac657600080fd5b6000612ad4848285016128da565b91505092915050565b6000612ae98383612f76565b60608301905092915050565b6000612b018383612fb8565b905092915050565b612b128161354c565b82525050565b612b2181613504565b82525050565b612b3081613504565b82525050565b6000612b418261347a565b612b4b81856134b5565b9350612b5683613445565b8060005b83811015612b87578151612b6e8882612add565b9750612b798361349b565b925050600181019050612b5a565b5085935050505092915050565b6000612b9f82613485565b612ba981856134c6565b935083602082028501612bbb85613455565b8060005b85811015612bf75784840389528151612bd88582612af5565b9450612be3836134a8565b925060208a01995050600181019050612bbf565b50829750879550505050505092915050565b612c1281613516565b82525050565b612c2181613516565b82525050565b600081546001811660008114612c445760018114612c6957612cad565b607f6002830416612c5581876134d7565b955060ff1983168652808601935050612cad565b60028204612c7781876134d7565b9550612c8285613465565b60005b82811015612ca457815481890152600182019150602081019050612c85565b82880195505050505b505092915050565b612cbe8161355e565b82525050565b6000612ccf82613490565b612cd981856134e2565b9350612ce98185602086016135b5565b612cf2816135e8565b840191505092915050565b6000612d0882613490565b612d1281856134f3565b9350612d228185602086016135b5565b612d2b816135e8565b840191505092915050565b6000612d436012836134f3565b91507f596f752063616e277420776974686472617700000000000000000000000000006000830152602082019050919050565b6000612d836013836134f3565b91507f506c6173652077616974206f70656e2044414f000000000000000000000000006000830152602082019050919050565b6000612dc36010836134f3565b91507f43686f696365206e6f74206578697374000000000000000000000000000000006000830152602082019050919050565b6000612e036014836134f3565b91507f496e73756666696369656e742062616c616e63650000000000000000000000006000830152602082019050919050565b6000612e436017836134f3565b91507f596f752063616e2774206f70656e2077697468647261770000000000000000006000830152602082019050919050565b6000612e836012836134f3565b91507f54686520706f6f6c20697320636c6f73656400000000000000000000000000006000830152602082019050919050565b6000612ec36011836134f3565b91507f596f752063616e277420636f6c6c6563740000000000000000000000000000006000830152602082019050919050565b6000612f036018836134f3565b91507f54686520706f6f6c206973206e6f74206f70656e2079657400000000000000006000830152602082019050919050565b6000612f436012836134f3565b91507f616d6f756e742063616e6e6f74206265203000000000000000000000000000006000830152602082019050919050565b606082016000820151612f8c6000850182612b18565b506020820151612f9f6020850182613092565b506040820151612fb26040850182613092565b50505050565b6000610140830160008301518482036000860152612fd68282612cc4565b9150506020830151612feb6020860182612b18565b506040830151612ffe6040860182613092565b5060608301516130116060860182613092565b5060808301516130246080860182613092565b5060a083015161303760a0860182613092565b5060c083015161304a60c0860182613092565b5060e083015161305d60e0860182613092565b50610100830151613072610100860182612c09565b50610120830151613087610120860182613092565b508091505092915050565b61309b81613542565b82525050565b6130aa81613542565b82525050565b60006130bc8284612c27565b915081905092915050565b60006020820190506130dc6000830184612b27565b92915050565b60006020820190506130f76000830184612b09565b92915050565b60006060820190506131126000830186612b09565b61311f6020830185612b27565b61312c60408301846130a1565b949350505050565b60006040820190506131496000830185612b09565b61315660208301846130a1565b9392505050565b60006060820190506131726000830186612b27565b61317f60208301856130a1565b61318c60408301846130a1565b949350505050565b600060208201905081810360008301526131ae8184612b36565b905092915050565b600060208201905081810360008301526131d08184612b94565b905092915050565b60006020820190506131ed6000830184612c18565b92915050565b60006020820190506132086000830184612cb5565b92915050565b6000610140820190508181036000830152613229818d612cfd565b9050613238602083018c612b27565b613245604083018b6130a1565b613252606083018a6130a1565b61325f60808301896130a1565b61326c60a08301886130a1565b61327960c08301876130a1565b61328660e08301866130a1565b613294610100830185612c18565b6132a26101208301846130a1565b9b9a5050505050505050505050565b600060208201905081810360008301526132ca81612d36565b9050919050565b600060208201905081810360008301526132ea81612d76565b9050919050565b6000602082019050818103600083015261330a81612db6565b9050919050565b6000602082019050818103600083015261332a81612df6565b9050919050565b6000602082019050818103600083015261334a81612e36565b9050919050565b6000602082019050818103600083015261336a81612e76565b9050919050565b6000602082019050818103600083015261338a81612eb6565b9050919050565b600060208201905081810360008301526133aa81612ef6565b9050919050565b600060208201905081810360008301526133ca81612f36565b9050919050565b60006020820190506133e660008301846130a1565b92915050565b6000604051905081810181811067ffffffffffffffff8211171561340f57600080fd5b8060405250919050565b600067ffffffffffffffff82111561343057600080fd5b601f19601f8301169050602081019050919050565b6000819050602082019050919050565b6000819050602082019050919050565b60008190508160005260206000209050919050565b600081519050919050565b600081519050919050565b600081519050919050565b6000602082019050919050565b6000602082019050919050565b600082825260208201905092915050565b600082825260208201905092915050565b600081905092915050565b600082825260208201905092915050565b600082825260208201905092915050565b600061350f82613522565b9050919050565b60008115159050919050565b600073ffffffffffffffffffffffffffffffffffffffff82169050919050565b6000819050919050565b600061355782613582565b9050919050565b600061356982613570565b9050919050565b600061357b82613522565b9050919050565b600061358d82613594565b9050919050565b600061359f82613522565b9050919050565b82818337600083830152505050565b60005b838110156135d35780820151818401526020810190506135b8565b838111156135e2576000848401525b50505050565b6000601f19601f8301169050919050565b61360281613504565b811461360d57600080fd5b50565b61361981613516565b811461362457600080fd5b50565b61363081613542565b811461363b57600080fd5b5056fea365627a7a7231582050b656de410496f2b90553c678ed98afd8fa7485d45ce32fcc8a2992382dcb296c6578706572696d656e74616cf564736f6c63430005100040",
  "source": "pragma solidity ^0.5.0;\nimport \"./Ref.sol\";\ninterface IERC20 {\n    function totalSupply() external view returns (uint256);\n    function balanceOf(address account) external view returns (uint256);\n    function transfer(address recipient, uint256 amount) external returns (bool);\n    function allowance(address owner, address spender) external view returns (uint256);\n    function approve(address spender, uint256 amount) external returns (bool);\n    function transferFrom(address sender, address recipient, uint256 amount) external returns (bool);\n    event Transfer(address indexed from, address indexed to, uint256 value);\n    event Approval(address indexed owner, address indexed spender, uint256 value);\n}\npragma solidity ^0.5.0;\npragma experimental ABIEncoderV2;\ncontract Piswapnew{\n    address public owner;\n    constructor() public {owner = msg.sender;}\n    bool hasOpentransfer;\n    uint public balancepool3day = 14114400000000;\n    uint public balancepool15day = 22800000000000;\n    uint public balancepool30day = 28228800000000;\n    uint public timeendpool = 1606153354;//time end: 30/12/2020 1609372742\n    uint public openpool = 1606152154; //time start: 1/12/2020 1606780800\n    uint public time3day = 300; // 259200\n    uint public time15day = 600; //1296000\n    uint public time30day = 900; //2592000\n    uint public ratiopool3day = balancepool3day / ((timeendpool - openpool)/60);\n    uint public ratiopool15day = balancepool15day / ((timeendpool - openpool)/60);\n    uint public ratiopool30day = balancepool30day / ((timeendpool - openpool)/60);\n    IERC20 public LQPIS = IERC20(0x31ffE9A7859D12C335570DB37B7FDF198CfbE185); //Ropsten Liquylity pool PIS\n    IERC20 public PIS = IERC20(0x77483F98845affD4b7c8E6d73a01E33a74Bbe4E7); //Ropsten Liquylity pool PIS\n    mapping(address => uint) public totalstake;\n    mapping(address => bool) public user;\n    struct Liststake{\n         string stakeID;\n         address staker;\n         uint amount;\n         uint ratio;\n         uint timewithdraw;\n         uint choice; \n         uint reward70;\n         uint reward30;\n         bool withdrawstatus;\n         uint constamount;\n    } \n    // struct Listshowstake{\n    //     address staker;\n    //     uint amount;\n    //     uint timewithdraw;\n    //     uint choice;\n    // }\n    struct ListCollection{\n        address staker;\n        uint balance;\n        uint timecollect;\n    }\n     Liststake[] public liststake;\n    //  Listshowstake[] public listshowstake;\n     ListCollection[] public listCollection;\n     uint public totalpool3day = 0;\n     uint public totalpool15day = 0;\n     uint public totalpool30day = 0;\n     bool public hasPool3day;\n     bool public hasPool15day; \n     bool public hasPool30day; \n     uint public lasttimeStake3day = openpool;\n     uint public lasttimeStake15day = openpool;\n     uint public lasttimeStake30day = openpool;\n\n     function stake(string memory stakeID, uint amount, uint choice, address contractref,address sponsor) public {\n        Ref ref= Ref(contractref);\n        require(amount > 0, \"amount cannot be 0\");\n        require(timeendpool > block.timestamp, \"The pool is closed\");\n        require(choice == 1 || choice == 2 || choice == 3, \"Choice not exist\");\n        user[msg.sender]=true;\n        bool hasContract;\n        LQPIS.transferFrom(msg.sender, address(this), amount);\n        uint timewithdraw =0;\n        uint lasttimeStake =0;\n        uint balancepoolstake=0;\n        uint ratio =0;\n        address sponsorref;\n\n        // if(ref.getHasrefuse(sponsor)){sponsorref =  sponsor;}else{sponsorref = owner;}\n        // ref.setsponsor(msg.sender,sponsorref);\n        // ref.sales(msg.sender, amount);\n\n        uint time=0;\n        if(block.timestamp > openpool){time = block.timestamp;}else{time = openpool;}\n        if(choice ==1){\n            hasContract = hasPool3day;\n            timewithdraw = time + time3day;\n            totalpool3day +=amount;\n            balancepoolstake =totalpool3day;\n            lasttimeStake = lasttimeStake3day;\n            ratio=ratiopool3day;\n        }else if(choice ==2){\n            hasContract = hasPool15day;\n            timewithdraw = time + time15day;\n            totalpool15day +=amount;\n            balancepoolstake =totalpool15day;\n            lasttimeStake = lasttimeStake15day;\n            ratio=ratiopool15day;\n        }else if(choice ==3){\n            hasContract = hasPool30day;\n            timewithdraw = time + time30day;\n            totalpool30day +=amount;\n            balancepoolstake =totalpool30day;\n            lasttimeStake = lasttimeStake30day;\n            ratio=ratiopool30day;\n            totalstake[msg.sender] +=amount;\n            // if(totalstake[msg.sender] > 365000000 && !ref.getHasrefuse(msg.sender)){\n            //     ref.createref(msg.sender);  \n            // }\n        }  \n        if(timewithdraw > timeendpool){timewithdraw = timeendpool;}    \n        if(!hasContract){ \n           liststake.push(Liststake(stakeID, msg.sender, amount, ratio, timewithdraw, choice, 0, 0, false, amount));\n           hasContract = true;\n        }else{\n            for(uint i =0; i<liststake.length; i++){ \n                if(liststake[i].choice == choice && liststake[i].timewithdraw > lasttimeStake){\n                    uint timecal = 0;\n                    if(liststake[i].timewithdraw > time){timecal = time;}else{timecal=liststake[i].timewithdraw;}\n                    liststake[i].reward70 += 7 * liststake[i].ratio * (timecal - lasttimeStake)/600 ;\n                    liststake[i].reward30 += 3 * liststake[i].ratio * (timecal - lasttimeStake)/600 ;\n                    liststake[i].ratio = ratio * liststake[i].amount / balancepoolstake;\n                    // ref.caculationInterest(liststake[i].staker, liststake[i].ratio * (timecal - lasttimeStake)/60) ;\n                }                     \n            }\n            liststake.push(Liststake(stakeID, msg.sender, amount, ratio * amount/balancepoolstake, timewithdraw, choice, 0, 0, false, amount)) ;\n        }\n        if(choice ==1){\n            hasPool3day = hasContract;\n            lasttimeStake3day= time;\n        }else if(choice ==2){\n            hasPool15day = hasContract;\n            lasttimeStake15day= time;\n        }else if(choice ==3){\n            hasPool30day = hasContract;\n            lasttimeStake30day= time;\n        }\n     }\n\n     function collection(address contractref) public{\n         Ref ref= Ref(contractref);\n         require(openpool < block.timestamp, \"The pool is not open yet\");\n         require(user[msg.sender],\"You can't collect\");\n         uint blcollection =0;\n         uint time;\n         if(block.timestamp > timeendpool){time = timeendpool;}else{time=block.timestamp;}\n         for(uint i =0; i< liststake.length;i++){\n             uint lasttime =0;\n            if(liststake[i].choice ==1){\n                lasttime = lasttimeStake3day;\n            }else if(liststake[i].choice ==2){\n                lasttime = lasttimeStake15day;\n            }else if(liststake[i].choice ==3){\n                lasttime = lasttimeStake30day;\n            }\n            if(liststake[i].timewithdraw > lasttime){\n                uint timecal = 0;\n                if(liststake[i].timewithdraw > time){timecal = time;}else{timecal=liststake[i].timewithdraw;}\n                liststake[i].reward70 += 7 * liststake[i].ratio * (timecal - lasttime)/600 ;              \n                liststake[i].reward30 += 3 * liststake[i].ratio * (timecal - lasttime)/600 ;\n                // ref.caculationInterest(liststake[i].staker, liststake[i].ratio * (timecal - lasttime)/60) ;\n            }\n            if(liststake[i].staker==msg.sender){\n                blcollection += liststake[i].reward70;\n                liststake[i].reward70 =0;\n            }\n         }\n         lasttimeStake3day = lasttimeStake15day = lasttimeStake30day = time;\n         require(blcollection > 0,\"You can't collect\");\n         uint balanceref = ref.getBalancewithdraw(msg.sender);               \n         PIS.transfer(msg.sender,(blcollection+balanceref));\n         ref.resetBalance(msg.sender);\n        listCollection.push(ListCollection(msg.sender, (blcollection + balanceref), block.timestamp));\n     }\n\n     function withdraw(address contractref, string memory stakeID, uint choice) public{\n          Ref ref= Ref(contractref);\n         require(openpool < block.timestamp, \"The pool is not open yet\");\n         uint balancewith = 0;\n         uint time;\n         if(block.timestamp > timeendpool){time = timeendpool;}else{time=block.timestamp;}\n         for(uint i=0; i< liststake.length; i++){\n             if(keccak256(bytes(liststake[i].stakeID)) == keccak256(bytes(stakeID)) && liststake[i].choice == choice && liststake[i].staker == msg.sender && liststake[i].timewithdraw < block.timestamp && liststake[i].withdrawstatus == false){\n                 balancewith = liststake[i].amount;\n                 liststake[i].amount =0;\n                 liststake[i].withdrawstatus = true;\n             }\n         }\n         require(balancewith>0,\"Insufficient balance\");\n         LQPIS.transfer(msg.sender,balancewith);\n         uint lasttimewi =0;\n         uint ratiowi =0;\n         uint totalpool=0;\n         if(choice ==1){\n             lasttimewi = lasttimeStake3day;\n             ratiowi = ratiopool3day;\n             totalpool= totalpool3day-balancewith;\n         }else if(choice ==2){\n             lasttimewi = lasttimeStake15day;\n             ratiowi = ratiopool15day;\n             totalpool= totalpool15day-balancewith;\n         }else if(choice ==3){\n             lasttimewi = lasttimeStake30day;\n             ratiowi = ratiopool30day;\n             totalpool= totalpool30day-balancewith;\n         }\n         for(uint i=0; i< liststake.length; i++){\n                if(liststake[i].choice == choice && liststake[i].timewithdraw >= lasttimewi){\n                    uint timecal = 0;\n                    if(liststake[i].timewithdraw > time){timecal = time;}else{timecal=liststake[i].timewithdraw;}\n                    liststake[i].reward70 += 7 * liststake[i].ratio * (timecal - lasttimewi)/600 ;\n                    liststake[i].reward30 += 3 * liststake[i].ratio * (timecal - lasttimewi)/600 ;\n                    // ref.caculationInterest(liststake[i].staker, liststake[i].ratio * (timecal - lasttimewi)/60) ;\n                    if(totalpool ==0){\n                        liststake[i].ratio =0;\n                    }else{\n                        liststake[i].ratio = ratiowi * liststake[i].amount / totalpool;\n                    }\n                    if(liststake[i].staker == msg.sender){liststake[i].ratio =0;}                \n                }    \n         }\n         if(choice ==1){\n             lasttimeStake3day = time;\n             totalpool3day = totalpool;\n         }else if(choice ==2){\n             lasttimeStake15day = time;\n             totalpool15day = totalpool;\n         }else if(choice ==3){\n             lasttimeStake30day = time;\n             totalpool30day = totalpool;\n         }\n     }\n     function withdraw30(string memory stakeID, address contractref) public{\n        //  withdrawl all in account\n        require(hasOpentransfer, \"Plase wait open DAO\");\n        for(uint i =0; i<liststake.length; i++){ \n            if(keccak256(bytes(liststake[i].stakeID)) == keccak256(bytes(stakeID)) && liststake[i].staker == msg.sender){  \n                 Ref ref= Ref(contractref);\n                 uint balanceref = ref.getBalancewithdraw30(msg.sender);               \n                PIS.transfer(msg.sender,(liststake[i].reward30 + balanceref));\n                ref.resetBalance30(msg.sender);\n                liststake[i].reward30 =0;\n            }\n        }\n     }\n\n     function openWithdraw() public{\n         require(msg.sender == owner, \"You can't open withdraw\");\n         hasOpentransfer = true;\n     }\n     function getListstake() public view returns(Liststake[] memory){\n        return liststake;\n     }\n     function getListCollection() public view returns(ListCollection[] memory){\n        return listCollection;\n     }\n     function withdrawOwner(uint amount) public{\n         require(msg.sender == owner, \"You can't withdraw\");\n         PIS.transfer(msg.sender,amount);\n     }\n     function withdrawOwnerlp(uint amount) public{\n         require(msg.sender == owner, \"You can't withdraw\");\n         LQPIS.transfer(msg.sender,amount);\n     }\n}",
  "sourcePath": "/Users/quyphan/Desktop/smartcontract/Piswap/src/contracts/Piswapnew.sol",
  "compiler": {
    "name": "solc",
    "version": "0.5.16+commit.9c3226ce.Emscripten.clang"
  },
  "schemaVersion": "3.2.3",
  "updatedAt": "2020-11-23T17:13:52.686Z",
  "networkType": "ethereum",
  "devdoc": {
    "methods": {}
  },
  "userdoc": {
    "methods": {}
  }
}