{
  "contractName": "Piswap",
  "abi": [
    {
      "inputs": [],
      "payable": false,
      "stateMutability": "nonpayable",
      "type": "constructor"
    },
    {
      "constant": true,
      "inputs": [],
      "name": "LQPIS",
      "outputs": [
        {
          "internalType": "contract IERC20",
          "name": "",
          "type": "address"
        }
      ],
      "payable": false,
      "stateMutability": "view",
      "type": "function"
    },
    {
      "constant": true,
      "inputs": [],
      "name": "PIS",
      "outputs": [
        {
          "internalType": "contract IERC20",
          "name": "",
          "type": "address"
        }
      ],
      "payable": false,
      "stateMutability": "view",
      "type": "function"
    },
    {
      "constant": true,
      "inputs": [],
      "name": "balancepool",
      "outputs": [
        {
          "internalType": "uint256",
          "name": "",
          "type": "uint256"
        }
      ],
      "payable": false,
      "stateMutability": "view",
      "type": "function"
    },
    {
      "constant": true,
      "inputs": [],
      "name": "hasPool15day",
      "outputs": [
        {
          "internalType": "bool",
          "name": "",
          "type": "bool"
        }
      ],
      "payable": false,
      "stateMutability": "view",
      "type": "function"
    },
    {
      "constant": true,
      "inputs": [],
      "name": "hasPool24h",
      "outputs": [
        {
          "internalType": "bool",
          "name": "",
          "type": "bool"
        }
      ],
      "payable": false,
      "stateMutability": "view",
      "type": "function"
    },
    {
      "constant": true,
      "inputs": [],
      "name": "hasPool30day",
      "outputs": [
        {
          "internalType": "bool",
          "name": "",
          "type": "bool"
        }
      ],
      "payable": false,
      "stateMutability": "view",
      "type": "function"
    },
    {
      "constant": true,
      "inputs": [],
      "name": "lasttimeStake15day",
      "outputs": [
        {
          "internalType": "uint256",
          "name": "",
          "type": "uint256"
        }
      ],
      "payable": false,
      "stateMutability": "view",
      "type": "function"
    },
    {
      "constant": true,
      "inputs": [],
      "name": "lasttimeStake24h",
      "outputs": [
        {
          "internalType": "uint256",
          "name": "",
          "type": "uint256"
        }
      ],
      "payable": false,
      "stateMutability": "view",
      "type": "function"
    },
    {
      "constant": true,
      "inputs": [],
      "name": "lasttimeStake30day",
      "outputs": [
        {
          "internalType": "uint256",
          "name": "",
          "type": "uint256"
        }
      ],
      "payable": false,
      "stateMutability": "view",
      "type": "function"
    },
    {
      "constant": true,
      "inputs": [
        {
          "internalType": "uint256",
          "name": "",
          "type": "uint256"
        }
      ],
      "name": "liststake",
      "outputs": [
        {
          "internalType": "string",
          "name": "stakeID",
          "type": "string"
        },
        {
          "internalType": "address",
          "name": "staker",
          "type": "address"
        },
        {
          "internalType": "uint256",
          "name": "amount",
          "type": "uint256"
        },
        {
          "internalType": "uint256",
          "name": "ratioaccount",
          "type": "uint256"
        },
        {
          "internalType": "uint256",
          "name": "timewithdraw",
          "type": "uint256"
        },
        {
          "internalType": "uint256",
          "name": "totalreward",
          "type": "uint256"
        },
        {
          "internalType": "uint256",
          "name": "choice",
          "type": "uint256"
        },
        {
          "internalType": "bool",
          "name": "withdrawstatus",
          "type": "bool"
        }
      ],
      "payable": false,
      "stateMutability": "view",
      "type": "function"
    },
    {
      "constant": true,
      "inputs": [],
      "name": "owner",
      "outputs": [
        {
          "internalType": "address",
          "name": "",
          "type": "address"
        }
      ],
      "payable": false,
      "stateMutability": "view",
      "type": "function"
    },
    {
      "constant": true,
      "inputs": [],
      "name": "ratiopool",
      "outputs": [
        {
          "internalType": "uint256",
          "name": "",
          "type": "uint256"
        }
      ],
      "payable": false,
      "stateMutability": "view",
      "type": "function"
    },
    {
      "constant": true,
      "inputs": [],
      "name": "time15day",
      "outputs": [
        {
          "internalType": "uint256",
          "name": "",
          "type": "uint256"
        }
      ],
      "payable": false,
      "stateMutability": "view",
      "type": "function"
    },
    {
      "constant": true,
      "inputs": [],
      "name": "time24h",
      "outputs": [
        {
          "internalType": "uint256",
          "name": "",
          "type": "uint256"
        }
      ],
      "payable": false,
      "stateMutability": "view",
      "type": "function"
    },
    {
      "constant": true,
      "inputs": [],
      "name": "time30day",
      "outputs": [
        {
          "internalType": "uint256",
          "name": "",
          "type": "uint256"
        }
      ],
      "payable": false,
      "stateMutability": "view",
      "type": "function"
    },
    {
      "constant": true,
      "inputs": [],
      "name": "timeendpool",
      "outputs": [
        {
          "internalType": "uint256",
          "name": "",
          "type": "uint256"
        }
      ],
      "payable": false,
      "stateMutability": "view",
      "type": "function"
    },
    {
      "constant": true,
      "inputs": [],
      "name": "totalpool15day",
      "outputs": [
        {
          "internalType": "uint256",
          "name": "",
          "type": "uint256"
        }
      ],
      "payable": false,
      "stateMutability": "view",
      "type": "function"
    },
    {
      "constant": true,
      "inputs": [],
      "name": "totalpool24h",
      "outputs": [
        {
          "internalType": "uint256",
          "name": "",
          "type": "uint256"
        }
      ],
      "payable": false,
      "stateMutability": "view",
      "type": "function"
    },
    {
      "constant": true,
      "inputs": [],
      "name": "totalpool30day",
      "outputs": [
        {
          "internalType": "uint256",
          "name": "",
          "type": "uint256"
        }
      ],
      "payable": false,
      "stateMutability": "view",
      "type": "function"
    },
    {
      "constant": true,
      "inputs": [
        {
          "internalType": "address",
          "name": "",
          "type": "address"
        }
      ],
      "name": "totalstake",
      "outputs": [
        {
          "internalType": "uint256",
          "name": "",
          "type": "uint256"
        }
      ],
      "payable": false,
      "stateMutability": "view",
      "type": "function"
    },
    {
      "constant": false,
      "inputs": [
        {
          "internalType": "string",
          "name": "stakeID",
          "type": "string"
        },
        {
          "internalType": "uint256",
          "name": "amount",
          "type": "uint256"
        },
        {
          "internalType": "uint256",
          "name": "choice",
          "type": "uint256"
        },
        {
          "internalType": "address",
          "name": "contractref",
          "type": "address"
        },
        {
          "internalType": "address",
          "name": "sponsor",
          "type": "address"
        }
      ],
      "name": "stake",
      "outputs": [],
      "payable": false,
      "stateMutability": "nonpayable",
      "type": "function"
    },
    {
      "constant": false,
      "inputs": [
        {
          "internalType": "string",
          "name": "stakeID",
          "type": "string"
        },
        {
          "internalType": "uint256",
          "name": "choice",
          "type": "uint256"
        }
      ],
      "name": "unstake",
      "outputs": [],
      "payable": false,
      "stateMutability": "nonpayable",
      "type": "function"
    },
    {
      "constant": false,
      "inputs": [
        {
          "internalType": "string",
          "name": "stakeID",
          "type": "string"
        }
      ],
      "name": "withdraw30",
      "outputs": [],
      "payable": false,
      "stateMutability": "nonpayable",
      "type": "function"
    },
    {
      "constant": false,
      "inputs": [],
      "name": "openWithdraw",
      "outputs": [],
      "payable": false,
      "stateMutability": "nonpayable",
      "type": "function"
    },
    {
      "constant": true,
      "inputs": [],
      "name": "getListstake",
      "outputs": [
        {
          "components": [
            {
              "internalType": "string",
              "name": "stakeID",
              "type": "string"
            },
            {
              "internalType": "address",
              "name": "staker",
              "type": "address"
            },
            {
              "internalType": "uint256",
              "name": "amount",
              "type": "uint256"
            },
            {
              "internalType": "uint256",
              "name": "ratioaccount",
              "type": "uint256"
            },
            {
              "internalType": "uint256",
              "name": "timewithdraw",
              "type": "uint256"
            },
            {
              "internalType": "uint256",
              "name": "totalreward",
              "type": "uint256"
            },
            {
              "internalType": "uint256",
              "name": "choice",
              "type": "uint256"
            },
            {
              "internalType": "bool",
              "name": "withdrawstatus",
              "type": "bool"
            }
          ],
          "internalType": "struct Piswap.Liststake[]",
          "name": "",
          "type": "tuple[]"
        }
      ],
      "payable": false,
      "stateMutability": "view",
      "type": "function"
    },
    {
      "constant": false,
      "inputs": [
        {
          "internalType": "address",
          "name": "contractref",
          "type": "address"
        }
      ],
      "name": "withdrawref",
      "outputs": [],
      "payable": false,
      "stateMutability": "nonpayable",
      "type": "function"
    }
  ],
  "bytecode": "0x6080604052644cd5886400600155635fed144660025561012c600355610258600455610384600555603c42600254038161003557fe5b046001548161004057fe5b046006557308675b60387259cdcb693cebfca1e1b334211400600760006101000a81548173ffffffffffffffffffffffffffffffffffffffff021916908373ffffffffffffffffffffffffffffffffffffffff16021790555073380b0bb1a1ac3d08dc1be46bf6afbd42db527252600860006101000a81548173ffffffffffffffffffffffffffffffffffffffff021916908373ffffffffffffffffffffffffffffffffffffffff1602179055506000600b556000600c556000600d5534801561010957600080fd5b50336000806101000a81548173ffffffffffffffffffffffffffffffffffffffff021916908373ffffffffffffffffffffffffffffffffffffffff160217905550612888806101596000396000f3fe608060405234801561001057600080fd5b506004361061018e5760003560e01c8063845105e2116100de578063ace2d59d11610097578063d37c92dc11610071578063d37c92dc1461043c578063d5e6c73a14610458578063e776fa9b14610474578063eeae86c4146104925761018e565b8063ace2d59d146103c9578063af92c45e146103e7578063b96affbc1461041e5761018e565b8063845105e21461032957806386bf974c146103335780638da5cb5b146103515780638fb13f971461036f578063a1507db71461038d578063a2bc1d12146103ab5761018e565b80635a8db4d61161014b57806365dd37d21161012557806365dd37d21461029f5780636b80a873146102bd578063734db006146102db5780637480e3b21461030b5761018e565b80635a8db4d6146102455780635ff4cd541461026357806363db5e22146102815761018e565b80630396e3a7146101935780631916e6dd146101b157806331cbf510146101cf578063391c0937146101eb5780634d77018214610209578063567ae7a114610227575b600080fd5b61019b6104ae565b6040516101a89190612611565b60405180910390f35b6101b96104b4565b6040516101c69190612494565b60405180910390f35b6101e960048036036101e49190810190611eec565b610659565b005b6101f3610f2c565b60405161020091906124d1565b60405180910390f35b610211610f52565b60405161021e9190612611565b60405180910390f35b61022f610f58565b60405161023c9190612611565b60405180910390f35b61024d610f5e565b60405161025a9190612611565b60405180910390f35b61026b610f64565b60405161027891906124b6565b60405180910390f35b610289610f77565b60405161029691906124b6565b60405180910390f35b6102a7610f8a565b6040516102b49190612611565b60405180910390f35b6102c5610f90565b6040516102d29190612611565b60405180910390f35b6102f560048036036102f09190810190611e05565b610f96565b6040516103029190612611565b60405180910390f35b610313610fae565b6040516103209190612611565b60405180910390f35b610331610fb4565b005b61033b611060565b6040516103489190612611565b60405180910390f35b610359611066565b60405161036691906123d5565b60405180910390f35b61037761108b565b6040516103849190612611565b60405180910390f35b610395611091565b6040516103a29190612611565b60405180910390f35b6103b3611097565b6040516103c091906124d1565b60405180910390f35b6103d16110bd565b6040516103de91906124b6565b60405180910390f35b61040160048036036103fc9190810190611f7b565b6110d0565b6040516104159897969594939291906124ec565b60405180910390f35b6104266111ea565b6040516104339190612611565b60405180910390f35b61045660048036036104519190810190611e98565b6111f0565b005b610472600480360361046d9190810190611e05565b61186c565b005b61047c611aba565b6040516104899190612611565b60405180910390f35b6104ac60048036036104a79190810190611e57565b611ac0565b005b600c5481565b6060600a805480602002602001604051908101604052809291908181526020016000905b82821015610650578382906000526020600020906008020160405180610100016040529081600082018054600181600116156101000203166002900480601f0160208091040260200160405190810160405280929190818152602001828054600181600116156101000203166002900480156105955780601f1061056a57610100808354040283529160200191610595565b820191906000526020600020905b81548152906001019060200180831161057857829003601f168201915b505050505081526020016001820160009054906101000a900473ffffffffffffffffffffffffffffffffffffffff1673ffffffffffffffffffffffffffffffffffffffff1673ffffffffffffffffffffffffffffffffffffffff16815260200160028201548152602001600382015481526020016004820154815260200160058201548152602001600682015481526020016007820160009054906101000a900460ff161515151581525050815260200190600101906104d8565b50505050905090565b6000829050600085116106a1576040517f08c379a0000000000000000000000000000000000000000000000000000000008152600401610698906125f1565b60405180910390fd5b42600254116106e5576040517f08c379a00000000000000000000000000000000000000000000000000000000081526004016106dc906125d1565b60405180910390fd5b60018414806106f45750600284145b806106ff5750600384145b61073e576040517f08c379a000000000000000000000000000000000000000000000000000000000815260040161073590612591565b60405180910390fd5b6000600760009054906101000a900473ffffffffffffffffffffffffffffffffffffffff1673ffffffffffffffffffffffffffffffffffffffff166323b872dd3330896040518463ffffffff1660e01b815260040161079f93929190612434565b602060405180830381600087803b1580156107b957600080fd5b505af11580156107cd573d6000803e3d6000fd5b505050506040513d601f19601f820116820180604052506107f19190810190611e2e565b5060008090506000809050600080905060008573ffffffffffffffffffffffffffffffffffffffff166341dc7409886040518263ffffffff1660e01b815260040161083c91906123d5565b60206040518083038186803b15801561085457600080fd5b505afa158015610868573d6000803e3d6000fd5b505050506040513d601f19601f8201168201806040525061088c9190810190611e2e565b15610899578690506108be565b6000809054906101000a900473ffffffffffffffffffffffffffffffffffffffff1690505b89600960003373ffffffffffffffffffffffffffffffffffffffff1673ffffffffffffffffffffffffffffffffffffffff168152602001908152602001600020600082825401925050819055506001600960003373ffffffffffffffffffffffffffffffffffffffff1673ffffffffffffffffffffffffffffffffffffffff168152602001908152602001600020541115610a2e578573ffffffffffffffffffffffffffffffffffffffff1663398ea87d33836040518363ffffffff1660e01b815260040161098e92919061240b565b600060405180830381600087803b1580156109a857600080fd5b505af11580156109bc573d6000803e3d6000fd5b505050508573ffffffffffffffffffffffffffffffffffffffff16630d9859d4338c6040518363ffffffff1660e01b81526004016109fb92919061246b565b600060405180830381600087803b158015610a1557600080fd5b505af1158015610a29573d6000803e3d6000fd5b505050505b6001891415610a6f57600e60009054906101000a900460ff1694506003544201935089600b60008282540192505081905550600b549150600f549250610aef565b6002891415610ab057600e60019054906101000a900460ff1694506004544201935089600c60008282540192505081905550600c5491506010549250610aee565b6003891415610aed57600e60029054906101000a900460ff1694506005544201935089600d60008282540192505081905550600d54915060115492505b5b5b84610c3957600a6040518061010001604052808d81526020013373ffffffffffffffffffffffffffffffffffffffff1681526020018c81526020016006548152602001868152602001600081526020018b815260200160001515815250908060018154018082558091505090600182039060005260206000209060080201600090919290919091506000820151816000019080519060200190610b93929190611cb8565b5060208201518160010160006101000a81548173ffffffffffffffffffffffffffffffffffffffff021916908373ffffffffffffffffffffffffffffffffffffffff16021790555060408201518160020155606082015181600301556080820151816004015560a0820151816005015560c0820151816006015560e08201518160070160006101000a81548160ff02191690831515021790555050505060019450610e94565b60008090505b600a80549050811015610d4f5789600a8281548110610c5a57fe5b906000526020600020906008020160060154148015610c96575083600a8281548110610c8257fe5b906000526020600020906008020160040154105b15610d4257603c844203600a8381548110610cad57fe5b9060005260206000209060080201600301540281610cc757fe5b04600a8281548110610cd557fe5b90600052602060002090600802016005016000828254019250508190555082600a8281548110610d0157fe5b9060005260206000209060080201600201546006540281610d1e57fe5b04600a8281548110610d2c57fe5b9060005260206000209060080201600301819055505b8080600101915050610c3f565b50600a6040518061010001604052808d81526020013373ffffffffffffffffffffffffffffffffffffffff1681526020018c8152602001848d81610d8f57fe5b048152602001868152602001600081526020018b815260200160001515815250908060018154018082558091505090600182039060005260206000209060080201600090919290919091506000820151816000019080519060200190610df6929190611cb8565b5060208201518160010160006101000a81548173ffffffffffffffffffffffffffffffffffffffff021916908373ffffffffffffffffffffffffffffffffffffffff16021790555060408201518160020155606082015181600301556080820151816004015560a0820151816005015560c0820151816006015560e08201518160070160006101000a81548160ff0219169083151502179055505050505b6001891415610ec35742600f8190555084600e60006101000a81548160ff021916908315150217905550610f1f565b6002891415610ef2574260108190555084600e60016101000a81548160ff021916908315150217905550610f1e565b6003891415610f1d574260118190555084600e60026101000a81548160ff0219169083151502179055505b5b5b5050505050505050505050565b600760009054906101000a900473ffffffffffffffffffffffffffffffffffffffff1681565b600b5481565b60115481565b60065481565b600e60009054906101000a900460ff1681565b600e60019054906101000a900460ff1681565b60035481565b60025481565b60096020528060005260406000206000915090505481565b60045481565b6000809054906101000a900473ffffffffffffffffffffffffffffffffffffffff1673ffffffffffffffffffffffffffffffffffffffff163373ffffffffffffffffffffffffffffffffffffffff1614611043576040517f08c379a000000000000000000000000000000000000000000000000000000000815260040161103a906125b1565b60405180910390fd5b6001600060146101000a81548160ff021916908315150217905550565b60105481565b6000809054906101000a900473ffffffffffffffffffffffffffffffffffffffff1681565b60055481565b60015481565b600860009054906101000a900473ffffffffffffffffffffffffffffffffffffffff1681565b600e60029054906101000a900460ff1681565b600a81815481106110dd57fe5b9060005260206000209060080201600091509050806000018054600181600116156101000203166002900480601f0160208091040260200160405190810160405280929190818152602001828054600181600116156101000203166002900480156111895780601f1061115e57610100808354040283529160200191611189565b820191906000526020600020905b81548152906001019060200180831161116c57829003601f168201915b5050505050908060010160009054906101000a900473ffffffffffffffffffffffffffffffffffffffff16908060020154908060030154908060040154908060050154908060060154908060070160009054906101000a900460ff16905088565b600d5481565b60008090506000809050600080905060008090506000809050600080905060008090506000809050600189141561123057600f549350600b54965061125e565b6002891415611248576010549350600c54965061125d565b600389141561125c576011549350600d5496505b5b5b60008090505b600a80549050811015611461578a80519060200120600a828154811061128657fe5b90600052602060002090600802016000016040516112a491906123be565b604051809103902014801561132257503373ffffffffffffffffffffffffffffffffffffffff16600a82815481106112d857fe5b906000526020600020906008020160010160009054906101000a900473ffffffffffffffffffffffffffffffffffffffff1673ffffffffffffffffffffffffffffffffffffffff16145b801561134c575042600a828154811061133757fe5b90600052602060002090600802016004015411155b8015611375575089600a828154811061136157fe5b906000526020600020906008020160060154145b1561145457600a818154811061138757fe5b9060005260206000209060080201600201549650600a81815481106113a857fe5b906000526020600020906008020160050154985084600a82815481106113ca57fe5b90600052602060002090600802016004015410156113ea5788955061143a565b603c85600a83815481106113fa57fe5b90600052602060002090600802016004015403600a838154811061141a57fe5b906000526020600020906008020160030154028161143457fe5b04890195505b600a866007028161144757fe5b0491506001935086880392505b8080600101915050611264565b506000861161146f57600080fd5b60018314156118605760008090505b600a805490508110156116ac5789600a828154811061149957fe5b9060005260206000209060080201600601541480156114d5575084600a82815481106114c157fe5b906000526020600020906008020160040154105b1561169f57603c854203600a83815481106114ec57fe5b906000526020600020906008020160030154028161150657fe5b04600a828154811061151457fe5b906000526020600020906008020160050160008282540192505081905550600083111561158e5782600a828154811061154957fe5b906000526020600020906008020160020154600654028161156657fe5b04600a828154811061157457fe5b9060005260206000209060080201600301819055506115b3565b6000600a828154811061159d57fe5b9060005260206000209060080201600301819055505b3373ffffffffffffffffffffffffffffffffffffffff16600a82815481106115d757fe5b906000526020600020906008020160010160009054906101000a900473ffffffffffffffffffffffffffffffffffffffff1673ffffffffffffffffffffffffffffffffffffffff16141561169e57600a866003028161163257fe5b04600a828154811061164057fe5b9060005260206000209060080201600501819055506000600a828154811061166457fe5b9060005260206000209060080201600301819055506000600a828154811061168857fe5b9060005260206000209060080201600201819055505b5b808060010191505061147e565b5060018914156116c95742600f8190555081600b819055506116ff565b60028914156116e5574260108190555081600c819055506116fe565b60038914156116fd574260118190555081600d819055505b5b5b600760009054906101000a900473ffffffffffffffffffffffffffffffffffffffff1673ffffffffffffffffffffffffffffffffffffffff1663a9059cbb33886040518363ffffffff1660e01b815260040161175c92919061246b565b602060405180830381600087803b15801561177657600080fd5b505af115801561178a573d6000803e3d6000fd5b505050506040513d601f19601f820116820180604052506117ae9190810190611e2e565b50600860009054906101000a900473ffffffffffffffffffffffffffffffffffffffff1673ffffffffffffffffffffffffffffffffffffffff1663a9059cbb33836040518363ffffffff1660e01b815260040161180c92919061246b565b602060405180830381600087803b15801561182657600080fd5b505af115801561183a573d6000803e3d6000fd5b505050506040513d601f19601f8201168201806040525061185e9190810190611e2e565b505b50505050505050505050565b600081905060008090508173ffffffffffffffffffffffffffffffffffffffff166341dc7409336040518263ffffffff1660e01b81526004016118af91906123f0565b60206040518083038186803b1580156118c757600080fd5b505afa1580156118db573d6000803e3d6000fd5b505050506040513d601f19601f820116820180604052506118ff9190810190611e2e565b15611ab5578173ffffffffffffffffffffffffffffffffffffffff166305c67d67336040518263ffffffff1660e01b815260040161193d91906123f0565b60206040518083038186803b15801561195557600080fd5b505afa158015611969573d6000803e3d6000fd5b505050506040513d601f19601f8201168201806040525061198d9190810190611fa4565b90506000811115611ab457600860009054906101000a900473ffffffffffffffffffffffffffffffffffffffff1673ffffffffffffffffffffffffffffffffffffffff1663a9059cbb33836040518363ffffffff1660e01b81526004016119f592919061246b565b602060405180830381600087803b158015611a0f57600080fd5b505af1158015611a23573d6000803e3d6000fd5b505050506040513d601f19601f82011682018060405250611a479190810190611e2e565b508173ffffffffffffffffffffffffffffffffffffffff1663bd051844336040518263ffffffff1660e01b8152600401611a8191906123f0565b600060405180830381600087803b158015611a9b57600080fd5b505af1158015611aaf573d6000803e3d6000fd5b505050505b5b505050565b600f5481565b600060149054906101000a900460ff16611b0f576040517f08c379a0000000000000000000000000000000000000000000000000000000008152600401611b0690612571565b60405180910390fd5b60008090505b600a80549050811015611cb4578180519060200120600a8281548110611b3757fe5b9060005260206000209060080201600001604051611b5591906123be565b6040518091039020148015611bd357503373ffffffffffffffffffffffffffffffffffffffff16600a8281548110611b8957fe5b906000526020600020906008020160010160009054906101000a900473ffffffffffffffffffffffffffffffffffffffff1673ffffffffffffffffffffffffffffffffffffffff16145b15611ca757600860009054906101000a900473ffffffffffffffffffffffffffffffffffffffff1673ffffffffffffffffffffffffffffffffffffffff1663a9059cbb33600a8481548110611c2457fe5b9060005260206000209060080201600501546040518363ffffffff1660e01b8152600401611c5392919061246b565b602060405180830381600087803b158015611c6d57600080fd5b505af1158015611c81573d6000803e3d6000fd5b505050506040513d601f19601f82011682018060405250611ca59190810190611e2e565b505b8080600101915050611b15565b5050565b828054600181600116156101000203166002900490600052602060002090601f016020900481019282601f10611cf957805160ff1916838001178555611d27565b82800160010185558215611d27579182015b82811115611d26578251825591602001919060010190611d0b565b5b509050611d349190611d38565b5090565b611d5a91905b80821115611d56576000816000905550600101611d3e565b5090565b90565b600081359050611d6c81612800565b92915050565b600081519050611d8181612817565b92915050565b600082601f830112611d9857600080fd5b8135611dab611da682612659565b61262c565b91508082526020830160208301858383011115611dc757600080fd5b611dd28382846127ad565b50505092915050565b600081359050611dea8161282e565b92915050565b600081519050611dff8161282e565b92915050565b600060208284031215611e1757600080fd5b6000611e2584828501611d5d565b91505092915050565b600060208284031215611e4057600080fd5b6000611e4e84828501611d72565b91505092915050565b600060208284031215611e6957600080fd5b600082013567ffffffffffffffff811115611e8357600080fd5b611e8f84828501611d87565b91505092915050565b60008060408385031215611eab57600080fd5b600083013567ffffffffffffffff811115611ec557600080fd5b611ed185828601611d87565b9250506020611ee285828601611ddb565b9150509250929050565b600080600080600060a08688031215611f0457600080fd5b600086013567ffffffffffffffff811115611f1e57600080fd5b611f2a88828901611d87565b9550506020611f3b88828901611ddb565b9450506040611f4c88828901611ddb565b9350506060611f5d88828901611d5d565b9250506080611f6e88828901611d5d565b9150509295509295909350565b600060208284031215611f8d57600080fd5b6000611f9b84828501611ddb565b91505092915050565b600060208284031215611fb657600080fd5b6000611fc484828501611df0565b91505092915050565b6000611fd983836122f0565b905092915050565b611fea81612753565b82525050565b611ff98161270b565b82525050565b6120088161270b565b82525050565b6000612019826126aa565b61202381856126cd565b93508360208202850161203585612685565b8060005b8581101561207157848403895281516120528582611fcd565b945061205d836126c0565b925060208a01995050600181019050612039565b50829750879550505050505092915050565b61208c8161271d565b82525050565b61209b8161271d565b82525050565b6000815460018116600081146120be57600181146120e357612127565b607f60028304166120cf81876126de565b955060ff1983168652808601935050612127565b600282046120f181876126de565b95506120fc85612695565b60005b8281101561211e578154818901526001820191506020810190506120ff565b82880195505050505b505092915050565b61213881612765565b82525050565b6000612149826126b5565b61215381856126e9565b93506121638185602086016127bc565b61216c816127ef565b840191505092915050565b6000612182826126b5565b61218c81856126fa565b935061219c8185602086016127bc565b6121a5816127ef565b840191505092915050565b60006121bd6013836126fa565b91507f506c6173652077616974206f70656e2044414f000000000000000000000000006000830152602082019050919050565b60006121fd6010836126fa565b91507f43686f696365206e6f74206578697374000000000000000000000000000000006000830152602082019050919050565b600061223d6017836126fa565b91507f596f752063616e2774206f70656e2077697468647261770000000000000000006000830152602082019050919050565b600061227d6012836126fa565b91507f54686520706f6f6c20697320636c6f73656400000000000000000000000000006000830152602082019050919050565b60006122bd6012836126fa565b91507f616d6f756e742063616e6e6f74206265203000000000000000000000000000006000830152602082019050919050565b600061010083016000830151848203600086015261230e828261213e565b91505060208301516123236020860182611ff0565b50604083015161233660408601826123a0565b50606083015161234960608601826123a0565b50608083015161235c60808601826123a0565b5060a083015161236f60a08601826123a0565b5060c083015161238260c08601826123a0565b5060e083015161239560e0860182612083565b508091505092915050565b6123a981612749565b82525050565b6123b881612749565b82525050565b60006123ca82846120a1565b915081905092915050565b60006020820190506123ea6000830184611fff565b92915050565b60006020820190506124056000830184611fe1565b92915050565b60006040820190506124206000830185611fe1565b61242d6020830184611fff565b9392505050565b60006060820190506124496000830186611fe1565b6124566020830185611fff565b61246360408301846123af565b949350505050565b60006040820190506124806000830185611fe1565b61248d60208301846123af565b9392505050565b600060208201905081810360008301526124ae818461200e565b905092915050565b60006020820190506124cb6000830184612092565b92915050565b60006020820190506124e6600083018461212f565b92915050565b6000610100820190508181036000830152612507818b612177565b9050612516602083018a611fff565b61252360408301896123af565b61253060608301886123af565b61253d60808301876123af565b61254a60a08301866123af565b61255760c08301856123af565b61256460e0830184612092565b9998505050505050505050565b6000602082019050818103600083015261258a816121b0565b9050919050565b600060208201905081810360008301526125aa816121f0565b9050919050565b600060208201905081810360008301526125ca81612230565b9050919050565b600060208201905081810360008301526125ea81612270565b9050919050565b6000602082019050818103600083015261260a816122b0565b9050919050565b600060208201905061262660008301846123af565b92915050565b6000604051905081810181811067ffffffffffffffff8211171561264f57600080fd5b8060405250919050565b600067ffffffffffffffff82111561267057600080fd5b601f19601f8301169050602081019050919050565b6000819050602082019050919050565b60008190508160005260206000209050919050565b600081519050919050565b600081519050919050565b6000602082019050919050565b600082825260208201905092915050565b600081905092915050565b600082825260208201905092915050565b600082825260208201905092915050565b600061271682612729565b9050919050565b60008115159050919050565b600073ffffffffffffffffffffffffffffffffffffffff82169050919050565b6000819050919050565b600061275e82612789565b9050919050565b600061277082612777565b9050919050565b600061278282612729565b9050919050565b60006127948261279b565b9050919050565b60006127a682612729565b9050919050565b82818337600083830152505050565b60005b838110156127da5780820151818401526020810190506127bf565b838111156127e9576000848401525b50505050565b6000601f19601f8301169050919050565b6128098161270b565b811461281457600080fd5b50565b6128208161271d565b811461282b57600080fd5b50565b61283781612749565b811461284257600080fd5b5056fea365627a7a72315820b4dd1f5032cdc8a63991d342fc0d5f7f72c95d139a7f08c5463ebad6e45a84576c6578706572696d656e74616cf564736f6c63430005100040",
  "source": "pragma solidity ^0.5.0;\nimport \"./Ref.sol\";\ninterface IERC20 {\n    function totalSupply() external view returns (uint256);\n    function balanceOf(address account) external view returns (uint256);\n    function transfer(address recipient, uint256 amount) external returns (bool);\n    function allowance(address owner, address spender) external view returns (uint256);\n    function approve(address spender, uint256 amount) external returns (bool);\n    function transferFrom(address sender, address recipient, uint256 amount) external returns (bool);\n    event Transfer(address indexed from, address indexed to, uint256 value);\n    event Approval(address indexed owner, address indexed spender, uint256 value);\n}\npragma solidity ^0.5.0;\npragma experimental ABIEncoderV2;\ncontract Piswap{\n    address public owner;\n    constructor() public {owner = msg.sender;}\n    bool hasOpentransfer;\n     uint public balancepool = 330000000000;\n     uint public timeendpool = 1609372742;//time end: 30/12/2020\n     uint public time24h = 300;  //86400\n     uint public time15day = 600; //1296000\n     uint public time30day = 900;\n     uint public ratiopool = balancepool / ((timeendpool - block.timestamp)/60);\n     IERC20 public LQPIS = IERC20(0x08675b60387259cDcb693cebfCa1E1B334211400); //Ropsten Liquylity pool PIS\n     IERC20 public PIS = IERC20(0x380B0bb1a1aC3d08DC1BE46BF6afbD42Db527252); //Ropsten Liquylity pool PIS\n     mapping(address => uint) public totalstake;\n    //  mapping(address => address) public sponsor;\n     struct Liststake{\n         string stakeID;\n         address staker;\n         uint amount;\n         uint ratioaccount;\n         uint timewithdraw;\n         uint totalreward;\n         uint choice; \n         bool withdrawstatus;\n     } \n     Liststake[] public liststake;\n     uint public totalpool24h = 0;\n     uint public totalpool15day = 0;\n     uint public totalpool30day = 0;\n     bool public hasPool24h;\n     bool public hasPool15day; \n     bool public hasPool30day; \n     uint public lasttimeStake24h;\n     uint public lasttimeStake15day;\n     uint public lasttimeStake30day;\n\n     function stake(string memory stakeID, uint amount, uint choice, address contractref,address sponsor) public {\n         Ref ref= Ref(contractref);\n         //create ref + update balance sponsor \n         //require block.timestamp > timestake start \n        require(amount > 0, \"amount cannot be 0\");\n        require(timeendpool > block.timestamp, \"The pool is closed\");\n        require(choice == 1 || choice == 2 || choice == 3, \"Choice not exist\");\n        bool hasContract;\n        LQPIS.transferFrom(msg.sender, address(this), amount);\n        uint timewithdraw =0;\n        uint lasttimeStake =0;\n        uint balancepoolstake=0;\n\n        address sponsorref;\n         if(ref.getHasrefuse(sponsor)){\n             sponsorref =  sponsor;\n         }else{\n             sponsorref = owner;\n         }\n        totalstake[msg.sender] +=amount;\n        // totalstake > 1 PLPIS\n         if(totalstake[msg.sender] > 1){\n             ref.createref(msg.sender, sponsorref);  \n             ref.caculationInterest(msg.sender, amount) ;\n         }\n\n        if(choice ==1){\n            hasContract = hasPool24h;\n            timewithdraw = block.timestamp + time24h;\n            totalpool24h +=amount;\n            balancepoolstake =totalpool24h;\n            lasttimeStake = lasttimeStake24h;\n        }else if(choice ==2){\n            hasContract = hasPool15day;\n            timewithdraw = block.timestamp + time15day;\n            totalpool15day +=amount;\n            balancepoolstake =totalpool15day;\n            lasttimeStake = lasttimeStake15day;\n        }else if(choice ==3){\n            hasContract = hasPool30day;\n            timewithdraw = block.timestamp + time30day;\n            totalpool30day +=amount;\n            balancepoolstake =totalpool30day;\n            lasttimeStake = lasttimeStake30day;\n        }\n        if(!hasContract){ \n           liststake.push(Liststake(stakeID, msg.sender, amount, ratiopool, timewithdraw, 0, choice, false)) ;\n           hasContract = true;\n        }else{\n            for(uint i =0; i<liststake.length; i++){ \n                if(liststake[i].choice == choice && liststake[i].timewithdraw < lasttimeStake){\n                    liststake[i].totalreward += liststake[i].ratioaccount * (block.timestamp - lasttimeStake)/60 ;\n                    liststake[i].ratioaccount = ratiopool * liststake[i].amount / balancepoolstake;\n                }                     \n            }\n            liststake.push(Liststake(stakeID, msg.sender, amount, amount/balancepoolstake, timewithdraw, 0, choice, false)) ;\n        }\n        if(choice ==1){\n            lasttimeStake24h = block.timestamp;\n            hasPool24h = hasContract;\n        }else if(choice ==2){\n            lasttimeStake15day = block.timestamp;\n            hasPool15day = hasContract;\n        }else if(choice ==3){\n            lasttimeStake30day = block.timestamp;\n            hasPool30day = hasContract;\n        }\n\n     }\n\n     function unstake(string memory stakeID, uint choice) public{\n         //70% withdraw 30% unlock before DAO:  \n        uint totalwithdraw = 0;\n        uint totalpool =0;\n        uint totalamount = 0;\n        uint totalrewardunstake = 0;\n        uint lastimeunstake = 0;\n        uint checkwithdraw =0;\n        uint balancepoolunstake =0;\n        uint totalwithfinal =0;\n        if(choice ==1){\n            lastimeunstake = lasttimeStake24h;\n            totalpool = totalpool24h;\n        }else if(choice ==2 ){\n            lastimeunstake =lasttimeStake15day;\n            totalpool = totalpool15day;\n        }else if(choice ==3){\n            lastimeunstake =lasttimeStake30day;\n            totalpool = totalpool30day;\n        }\n        for(uint i =0; i<liststake.length; i++){\n            if(keccak256(bytes(liststake[i].stakeID)) == keccak256(bytes(stakeID)) && liststake[i].staker == msg.sender && liststake[i].timewithdraw <= block.timestamp && liststake[i].choice == choice){\n                totalamount = liststake[i].amount;\n                totalwithdraw = liststake[i].totalreward;\n                if(liststake[i].timewithdraw < lastimeunstake){\n                    totalrewardunstake = totalwithdraw;\n                }else{\n                    totalrewardunstake = totalwithdraw + liststake[i].ratioaccount * (liststake[i].timewithdraw - lastimeunstake)/60;\n                }\n                totalwithfinal = 7 * totalrewardunstake / 10;\n                checkwithdraw =1;\n                balancepoolunstake = totalpool - totalamount;\n            }\n        }\n        require(totalamount > 0);\n        if(checkwithdraw ==1){\n            for(uint i =0; i<liststake.length; i++){ \n                if(liststake[i].choice == choice && liststake[i].timewithdraw < lastimeunstake){\n                    liststake[i].totalreward += liststake[i].ratioaccount * (block.timestamp - lastimeunstake)/60 ;\n                    if(balancepoolunstake > 0){\n                        liststake[i].ratioaccount = ratiopool * liststake[i].amount / balancepoolunstake;\n                    }else{\n                        liststake[i].ratioaccount = 0;\n                    }\n                    if(liststake[i].staker == msg.sender){\n                        liststake[i].totalreward = 3 * totalrewardunstake / 10;\n                        liststake[i].ratioaccount = 0;\n                        liststake[i].amount =0;\n                    }\n                    \n                }                     \n            }\n            if(choice ==1){\n                lasttimeStake24h = block.timestamp;\n                totalpool24h = balancepoolunstake;\n\n            }else if(choice ==2){\n                lasttimeStake15day = block.timestamp;\n                totalpool15day = balancepoolunstake;\n            }else if(choice ==3){\n                lasttimeStake30day = block.timestamp;\n                totalpool30day = balancepoolunstake;\n            }\n            LQPIS.transfer(msg.sender,totalamount);\n            PIS.transfer(msg.sender,totalwithfinal);\n        }\n        \n\n     }\n\n     function withdraw30(string memory stakeID) public{\n        //  withdrawl all in account\n        require(hasOpentransfer, \"Plase wait open DAO\");\n        for(uint i =0; i<liststake.length; i++){ \n            if(keccak256(bytes(liststake[i].stakeID)) == keccak256(bytes(stakeID)) && liststake[i].staker == msg.sender){                \n                PIS.transfer(msg.sender,liststake[i].totalreward);\n            }\n        }\n\n     }\n\n     function openWithdraw() public{\n         require(msg.sender == owner, \"You can't open withdraw\");\n         hasOpentransfer = true;\n     }\n     function getListstake() public view returns(Liststake[] memory){\n        return liststake;\n    }\n\n    function withdrawref(address contractref) public {\n        Ref ref= Ref(contractref);\n        uint balanceref =0;\n        if(ref.getHasrefuse(msg.sender)){\n            balanceref = ref.getBalancewithdraw(msg.sender);\n            if(balanceref > 0){\n                PIS.transfer(msg.sender,balanceref);\n                ref.resetBalance(msg.sender);\n            }\n        }\n    }\n\n}",
  "sourcePath": "/Users/quyphan/Desktop/smartcontract/Piswap/src/contracts/Piswap.sol",
  "compiler": {
    "name": "solc",
    "version": "0.5.16+commit.9c3226ce.Emscripten.clang"
  },
  "schemaVersion": "3.2.3",
  "updatedAt": "2020-11-22T06:26:41.471Z",
  "devdoc": {
    "methods": {}
  },
  "userdoc": {
    "methods": {}
  }
}