{
  "contractName": "Ref",
  "abi": [
    {
      "inputs": [],
      "payable": false,
      "stateMutability": "nonpayable",
      "type": "constructor"
    },
    {
      "constant": true,
      "inputs": [
        {
          "internalType": "address",
          "name": "",
          "type": "address"
        }
      ],
      "name": "addresssponsor",
      "outputs": [
        {
          "internalType": "address",
          "name": "",
          "type": "address"
        }
      ],
      "payable": false,
      "stateMutability": "view",
      "type": "function"
    },
    {
      "constant": true,
      "inputs": [
        {
          "internalType": "address",
          "name": "",
          "type": "address"
        }
      ],
      "name": "balanceaccount",
      "outputs": [
        {
          "internalType": "uint256",
          "name": "",
          "type": "uint256"
        }
      ],
      "payable": false,
      "stateMutability": "view",
      "type": "function"
    },
    {
      "constant": true,
      "inputs": [
        {
          "internalType": "address",
          "name": "",
          "type": "address"
        }
      ],
      "name": "balanceaccount30",
      "outputs": [
        {
          "internalType": "uint256",
          "name": "",
          "type": "uint256"
        }
      ],
      "payable": false,
      "stateMutability": "view",
      "type": "function"
    },
    {
      "constant": true,
      "inputs": [
        {
          "internalType": "address",
          "name": "",
          "type": "address"
        }
      ],
      "name": "hasRefuse",
      "outputs": [
        {
          "internalType": "bool",
          "name": "",
          "type": "bool"
        }
      ],
      "payable": false,
      "stateMutability": "view",
      "type": "function"
    },
    {
      "constant": true,
      "inputs": [
        {
          "internalType": "address",
          "name": "",
          "type": "address"
        }
      ],
      "name": "hasSponsor",
      "outputs": [
        {
          "internalType": "bool",
          "name": "",
          "type": "bool"
        }
      ],
      "payable": false,
      "stateMutability": "view",
      "type": "function"
    },
    {
      "constant": true,
      "inputs": [
        {
          "internalType": "uint256",
          "name": "",
          "type": "uint256"
        }
      ],
      "name": "listf",
      "outputs": [
        {
          "internalType": "address",
          "name": "sponsor",
          "type": "address"
        },
        {
          "internalType": "address",
          "name": "f1",
          "type": "address"
        }
      ],
      "payable": false,
      "stateMutability": "view",
      "type": "function"
    },
    {
      "constant": true,
      "inputs": [],
      "name": "owner",
      "outputs": [
        {
          "internalType": "address",
          "name": "",
          "type": "address"
        }
      ],
      "payable": false,
      "stateMutability": "view",
      "type": "function"
    },
    {
      "constant": true,
      "inputs": [],
      "name": "ownercontract",
      "outputs": [
        {
          "internalType": "address",
          "name": "",
          "type": "address"
        }
      ],
      "payable": false,
      "stateMutability": "view",
      "type": "function"
    },
    {
      "constant": true,
      "inputs": [
        {
          "internalType": "address",
          "name": "",
          "type": "address"
        }
      ],
      "name": "totalsales",
      "outputs": [
        {
          "internalType": "uint256",
          "name": "",
          "type": "uint256"
        }
      ],
      "payable": false,
      "stateMutability": "view",
      "type": "function"
    },
    {
      "constant": false,
      "inputs": [
        {
          "internalType": "address",
          "name": "contractuse",
          "type": "address"
        }
      ],
      "name": "setcontract",
      "outputs": [],
      "payable": false,
      "stateMutability": "nonpayable",
      "type": "function"
    },
    {
      "constant": true,
      "inputs": [
        {
          "internalType": "address",
          "name": "_address",
          "type": "address"
        }
      ],
      "name": "getHasrefuse",
      "outputs": [
        {
          "internalType": "bool",
          "name": "",
          "type": "bool"
        }
      ],
      "payable": false,
      "stateMutability": "view",
      "type": "function"
    },
    {
      "constant": true,
      "inputs": [
        {
          "internalType": "address",
          "name": "_address",
          "type": "address"
        }
      ],
      "name": "getBalancewithdraw",
      "outputs": [
        {
          "internalType": "uint256",
          "name": "",
          "type": "uint256"
        }
      ],
      "payable": false,
      "stateMutability": "view",
      "type": "function"
    },
    {
      "constant": true,
      "inputs": [
        {
          "internalType": "address",
          "name": "_address",
          "type": "address"
        }
      ],
      "name": "getBalancewithdraw30",
      "outputs": [
        {
          "internalType": "uint256",
          "name": "",
          "type": "uint256"
        }
      ],
      "payable": false,
      "stateMutability": "view",
      "type": "function"
    },
    {
      "constant": true,
      "inputs": [
        {
          "internalType": "address",
          "name": "_address",
          "type": "address"
        }
      ],
      "name": "getTotalsales",
      "outputs": [
        {
          "internalType": "uint256",
          "name": "",
          "type": "uint256"
        }
      ],
      "payable": false,
      "stateMutability": "view",
      "type": "function"
    },
    {
      "constant": true,
      "inputs": [],
      "name": "getListf",
      "outputs": [
        {
          "components": [
            {
              "internalType": "address",
              "name": "sponsor",
              "type": "address"
            },
            {
              "internalType": "address",
              "name": "f1",
              "type": "address"
            }
          ],
          "internalType": "struct Ref.Listf[]",
          "name": "",
          "type": "tuple[]"
        }
      ],
      "payable": false,
      "stateMutability": "view",
      "type": "function"
    },
    {
      "constant": false,
      "inputs": [
        {
          "internalType": "address",
          "name": "user",
          "type": "address"
        }
      ],
      "name": "createref",
      "outputs": [],
      "payable": false,
      "stateMutability": "nonpayable",
      "type": "function"
    },
    {
      "constant": false,
      "inputs": [
        {
          "internalType": "address",
          "name": "user",
          "type": "address"
        },
        {
          "internalType": "address",
          "name": "sponsor",
          "type": "address"
        }
      ],
      "name": "setsponsor",
      "outputs": [],
      "payable": false,
      "stateMutability": "nonpayable",
      "type": "function"
    },
    {
      "constant": false,
      "inputs": [
        {
          "internalType": "address",
          "name": "user",
          "type": "address"
        },
        {
          "internalType": "uint256",
          "name": "amount",
          "type": "uint256"
        }
      ],
      "name": "caculationInterest",
      "outputs": [],
      "payable": false,
      "stateMutability": "nonpayable",
      "type": "function"
    },
    {
      "constant": false,
      "inputs": [
        {
          "internalType": "address",
          "name": "account",
          "type": "address"
        }
      ],
      "name": "resetBalance",
      "outputs": [],
      "payable": false,
      "stateMutability": "nonpayable",
      "type": "function"
    },
    {
      "constant": false,
      "inputs": [
        {
          "internalType": "address",
          "name": "account",
          "type": "address"
        }
      ],
      "name": "resetBalance30",
      "outputs": [],
      "payable": false,
      "stateMutability": "nonpayable",
      "type": "function"
    },
    {
      "constant": false,
      "inputs": [
        {
          "internalType": "address",
          "name": "user",
          "type": "address"
        },
        {
          "internalType": "uint256",
          "name": "amount",
          "type": "uint256"
        }
      ],
      "name": "sales",
      "outputs": [],
      "payable": false,
      "stateMutability": "nonpayable",
      "type": "function"
    }
  ],
  "bytecode": "0x608060405234801561001057600080fd5b50336000806101000a81548173ffffffffffffffffffffffffffffffffffffffff021916908373ffffffffffffffffffffffffffffffffffffffff1602179055506116e1806100606000396000f3fe608060405234801561001057600080fd5b50600436106101375760003560e01c8063795b49ce116100b8578063a9ecb07c1161007c578063a9ecb07c14610372578063b97f49e5146103a3578063bd051844146103d3578063c22fe260146103ef578063d46c8da81461041f578063f1c820e81461043b57610137565b8063795b49ce146102b85780638da5cb5b146102d65780639705872c146102f457806397418603146103125780639f9a3af91461034257610137565b8063360345cd116100ff578063360345cd146102045780633a1c83ac146102205780633f662d121461023c57806341dc74091461026c57806358fdfdd21461029c57610137565b806305c67d671461013c57806307f8f29a1461016c5780630d9859d4146101885780632341581b146101a4578063278450a3146101d4575b600080fd5b61015660048036036101519190810190611337565b61046b565b60405161016391906115c3565b60405180910390f35b61018660048036036101819190810190611337565b6104b4565b005b6101a2600480360361019d919081019061139c565b610587565b005b6101be60048036036101b99190810190611337565b610835565b6040516101cb91906115c3565b60405180910390f35b6101ee60048036036101e99190810190611337565b61084d565b6040516101fb91906115c3565b60405180910390f35b61021e60048036036102199190810190611360565b610865565b005b61023a6004803603610235919081019061139c565b610b20565b005b61025660048036036102519190810190611337565b610cc3565b6040516102639190611588565b60405180910390f35b61028660048036036102819190810190611337565b610ce3565b6040516102939190611588565b60405180910390f35b6102b660048036036102b19190810190611337565b610d39565b005b6102c0610e76565b6040516102cd9190611522565b60405180910390f35b6102de610e9c565b6040516102eb9190611522565b60405180910390f35b6102fc610ec1565b6040516103099190611566565b60405180910390f35b61032c60048036036103279190810190611337565b610fcc565b6040516103399190611588565b60405180910390f35b61035c60048036036103579190810190611337565b610fec565b60405161036991906115c3565b60405180910390f35b61038c600480360361038791908101906113d8565b611035565b60405161039a92919061153d565b60405180910390f35b6103bd60048036036103b89190810190611337565b6110a6565b6040516103ca9190611522565b60405180910390f35b6103ed60048036036103e89190810190611337565b6110d9565b005b61040960048036036104049190810190611337565b6111b1565b60405161041691906115c3565b60405180910390f35b61043960048036036104349190810190611337565b6111fa565b005b61045560048036036104509190810190611337565b6112d2565b60405161046291906115c3565b60405180910390f35b6000600660008373ffffffffffffffffffffffffffffffffffffffff1673ffffffffffffffffffffffffffffffffffffffff168152602001908152602001600020549050919050565b6000809054906101000a900473ffffffffffffffffffffffffffffffffffffffff1673ffffffffffffffffffffffffffffffffffffffff163373ffffffffffffffffffffffffffffffffffffffff1614610543576040517f08c379a000000000000000000000000000000000000000000000000000000000815260040161053a906115a3565b60405180910390fd5b80600160006101000a81548173ffffffffffffffffffffffffffffffffffffffff021916908373ffffffffffffffffffffffffffffffffffffffff16021790555050565b600160009054906101000a900473ffffffffffffffffffffffffffffffffffffffff1673ffffffffffffffffffffffffffffffffffffffff163373ffffffffffffffffffffffffffffffffffffffff1614610617576040517f08c379a000000000000000000000000000000000000000000000000000000000815260040161060e906115a3565b60405180910390fd5b61061f6112ea565b60405180610140016040528060058152602001600481526020016003815260200160028152602001600181526020016001815260200160018152602001600181526020016001815260200160018152509050600083905060008090505b600a81101561082e576000600560008473ffffffffffffffffffffffffffffffffffffffff1673ffffffffffffffffffffffffffffffffffffffff16815260200190815260200160002060009054906101000a900473ffffffffffffffffffffffffffffffffffffffff169050600073ffffffffffffffffffffffffffffffffffffffff168173ffffffffffffffffffffffffffffffffffffffff161415610743576000809054906101000a900473ffffffffffffffffffffffffffffffffffffffff1690505b6103e8858584600a811061075357fe5b6020020151600702028161076357fe5b04600660008373ffffffffffffffffffffffffffffffffffffffff1673ffffffffffffffffffffffffffffffffffffffff168152602001908152602001600020600082825401925050819055506103e8858584600a81106107c057fe5b602002015160030202816107d057fe5b04600760008373ffffffffffffffffffffffffffffffffffffffff1673ffffffffffffffffffffffffffffffffffffffff1681526020019081526020016000206000828254019250508190555080925050808060010191505061067c565b5050505050565b60076020528060005260406000206000915090505481565b60086020528060005260406000206000915090505481565b600160009054906101000a900473ffffffffffffffffffffffffffffffffffffffff1673ffffffffffffffffffffffffffffffffffffffff163373ffffffffffffffffffffffffffffffffffffffff16146108f5576040517f08c379a00000000000000000000000000000000000000000000000000000000081526004016108ec906115a3565b60405180910390fd5b600460008373ffffffffffffffffffffffffffffffffffffffff1673ffffffffffffffffffffffffffffffffffffffff16815260200190815260200160002060009054906101000a900460ff16610b1c5780600560008473ffffffffffffffffffffffffffffffffffffffff1673ffffffffffffffffffffffffffffffffffffffff16815260200190815260200160002060006101000a81548173ffffffffffffffffffffffffffffffffffffffff021916908373ffffffffffffffffffffffffffffffffffffffff160217905550600260405180604001604052808373ffffffffffffffffffffffffffffffffffffffff1681526020018473ffffffffffffffffffffffffffffffffffffffff168152509080600181540180825580915050906001820390600052602060002090600202016000909192909190915060008201518160000160006101000a81548173ffffffffffffffffffffffffffffffffffffffff021916908373ffffffffffffffffffffffffffffffffffffffff16021790555060208201518160010160006101000a81548173ffffffffffffffffffffffffffffffffffffffff021916908373ffffffffffffffffffffffffffffffffffffffff1602179055505050506001600460008473ffffffffffffffffffffffffffffffffffffffff1673ffffffffffffffffffffffffffffffffffffffff16815260200190815260200160002060006101000a81548160ff0219169083151502179055505b5050565b600160009054906101000a900473ffffffffffffffffffffffffffffffffffffffff1673ffffffffffffffffffffffffffffffffffffffff163373ffffffffffffffffffffffffffffffffffffffff1614610bb0576040517f08c379a0000000000000000000000000000000000000000000000000000000008152600401610ba7906115a3565b60405180910390fd5b600082905060008090505b612710811015610cbd576000600560008473ffffffffffffffffffffffffffffffffffffffff1673ffffffffffffffffffffffffffffffffffffffff16815260200190815260200160002060009054906101000a900473ffffffffffffffffffffffffffffffffffffffff169050600073ffffffffffffffffffffffffffffffffffffffff168173ffffffffffffffffffffffffffffffffffffffff1614610ca65783600860008373ffffffffffffffffffffffffffffffffffffffff1673ffffffffffffffffffffffffffffffffffffffff16815260200190815260200160002081905550610cac565b61271091505b809250508080600101915050610bbb565b50505050565b60036020528060005260406000206000915054906101000a900460ff1681565b6000600360008373ffffffffffffffffffffffffffffffffffffffff1673ffffffffffffffffffffffffffffffffffffffff16815260200190815260200160002060009054906101000a900460ff169050919050565b600160009054906101000a900473ffffffffffffffffffffffffffffffffffffffff1673ffffffffffffffffffffffffffffffffffffffff163373ffffffffffffffffffffffffffffffffffffffff1614610dc9576040517f08c379a0000000000000000000000000000000000000000000000000000000008152600401610dc0906115a3565b60405180910390fd5b600360008273ffffffffffffffffffffffffffffffffffffffff1673ffffffffffffffffffffffffffffffffffffffff16815260200190815260200160002060009054906101000a900460ff16610e73576001600360008373ffffffffffffffffffffffffffffffffffffffff1673ffffffffffffffffffffffffffffffffffffffff16815260200190815260200160002060006101000a81548160ff0219169083151502179055505b50565b600160009054906101000a900473ffffffffffffffffffffffffffffffffffffffff1681565b6000809054906101000a900473ffffffffffffffffffffffffffffffffffffffff1681565b60606002805480602002602001604051908101604052809291908181526020016000905b82821015610fc357838290600052602060002090600202016040518060400160405290816000820160009054906101000a900473ffffffffffffffffffffffffffffffffffffffff1673ffffffffffffffffffffffffffffffffffffffff1673ffffffffffffffffffffffffffffffffffffffff1681526020016001820160009054906101000a900473ffffffffffffffffffffffffffffffffffffffff1673ffffffffffffffffffffffffffffffffffffffff1673ffffffffffffffffffffffffffffffffffffffff168152505081526020019060010190610ee5565b50505050905090565b60046020528060005260406000206000915054906101000a900460ff1681565b6000600760008373ffffffffffffffffffffffffffffffffffffffff1673ffffffffffffffffffffffffffffffffffffffff168152602001908152602001600020549050919050565b6002818154811061104257fe5b90600052602060002090600202016000915090508060000160009054906101000a900473ffffffffffffffffffffffffffffffffffffffff16908060010160009054906101000a900473ffffffffffffffffffffffffffffffffffffffff16905082565b60056020528060005260406000206000915054906101000a900473ffffffffffffffffffffffffffffffffffffffff1681565b600160009054906101000a900473ffffffffffffffffffffffffffffffffffffffff1673ffffffffffffffffffffffffffffffffffffffff163373ffffffffffffffffffffffffffffffffffffffff1614611169576040517f08c379a0000000000000000000000000000000000000000000000000000000008152600401611160906115a3565b60405180910390fd5b6000600660008373ffffffffffffffffffffffffffffffffffffffff1673ffffffffffffffffffffffffffffffffffffffff1681526020019081526020016000208190555050565b6000600860008373ffffffffffffffffffffffffffffffffffffffff1673ffffffffffffffffffffffffffffffffffffffff168152602001908152602001600020549050919050565b600160009054906101000a900473ffffffffffffffffffffffffffffffffffffffff1673ffffffffffffffffffffffffffffffffffffffff163373ffffffffffffffffffffffffffffffffffffffff161461128a576040517f08c379a0000000000000000000000000000000000000000000000000000000008152600401611281906115a3565b60405180910390fd5b6000600760008373ffffffffffffffffffffffffffffffffffffffff1673ffffffffffffffffffffffffffffffffffffffff1681526020019081526020016000208190555050565b60066020528060005260406000206000915090505481565b604051806101400160405280600a90602082028038833980820191505090505090565b60008135905061131c81611670565b92915050565b60008135905061133181611687565b92915050565b60006020828403121561134957600080fd5b60006113578482850161130d565b91505092915050565b6000806040838503121561137357600080fd5b60006113818582860161130d565b92505060206113928582860161130d565b9150509250929050565b600080604083850312156113af57600080fd5b60006113bd8582860161130d565b92505060206113ce85828601611322565b9150509250929050565b6000602082840312156113ea57600080fd5b60006113f884828501611322565b91505092915050565b600061140d83836114e4565b60408301905092915050565b61142281611628565b82525050565b61143181611628565b82525050565b6000611442826115ee565b61144c8185611606565b9350611457836115de565b8060005b8381101561148857815161146f8882611401565b975061147a836115f9565b92505060018101905061145b565b5085935050505092915050565b61149e8161163a565b82525050565b60006114b1600d83611617565b91507f596f75206e6f74206f776e6572000000000000000000000000000000000000006000830152602082019050919050565b6040820160008201516114fa6000850182611419565b50602082015161150d6020850182611419565b50505050565b61151c81611666565b82525050565b60006020820190506115376000830184611428565b92915050565b60006040820190506115526000830185611428565b61155f6020830184611428565b9392505050565b600060208201905081810360008301526115808184611437565b905092915050565b600060208201905061159d6000830184611495565b92915050565b600060208201905081810360008301526115bc816114a4565b9050919050565b60006020820190506115d86000830184611513565b92915050565b6000819050602082019050919050565b600081519050919050565b6000602082019050919050565b600082825260208201905092915050565b600082825260208201905092915050565b600061163382611646565b9050919050565b60008115159050919050565b600073ffffffffffffffffffffffffffffffffffffffff82169050919050565b6000819050919050565b61167981611628565b811461168457600080fd5b50565b61169081611666565b811461169b57600080fd5b5056fea365627a7a723158201184d44faa2ec9dd2245ba1938546c4dc03c81e70df1422148e14eaa3e03dd6f6c6578706572696d656e74616cf564736f6c63430005100040",
  "source": "// 2function \n// 1. Create link ref and sponsor\n//2. Caculation interest\n\npragma solidity ^0.5.0;\npragma experimental ABIEncoderV2;\ncontract Ref {\n    //Require call one contract////////////////\n    address public owner;\n    address public ownercontract;\n    constructor() public {owner = msg.sender;}\n    function setcontract(address contractuse) public{\n        require(msg.sender ==owner, \"You not owner\");\n        ownercontract =contractuse;\n    }\n    struct Listf{\n        address sponsor;\n        address f1;\n    }\n    Listf[] public listf;\n    mapping(address => bool) public hasRefuse;   \n    mapping(address => bool) public hasSponsor;\n    mapping(address => address) public addresssponsor; // Get address sponsor\n    // mapping(address => address) public addressf1;   // Get address f1\n    mapping(address => uint) public balanceaccount; // Ref account 70%\n    mapping(address => uint) public balanceaccount30; \n    mapping(address => uint) public totalsales;\n    function getHasrefuse(address _address) external view returns(bool) {return hasRefuse[_address];}\n    function getBalancewithdraw(address _address) external view returns(uint) {return balanceaccount[_address];}\n    function getBalancewithdraw30(address _address) external view returns(uint) {return balanceaccount30[_address];}\n    function getTotalsales(address _address) external view returns(uint) {return totalsales[_address];}\n    function getListf() public view returns(Listf[] memory){return listf;}\n    function createref(address user) public{\n        require(msg.sender==ownercontract, \"You not owner\");\n        if(!hasRefuse[user]){\n            hasRefuse[user] = true;\n            //transfer sponsor == me if can not sponsor\n            // addresssponsor[user]= sponsor;\n            // addressf1[sponsor] = user;\n            // listf.push(Listf(sponsor ,user));\n        }      \n    }\n    function setsponsor(address user, address sponsor) public {\n        require(msg.sender==ownercontract, \"You not owner\");\n        if(!hasSponsor[user]){\n            addresssponsor[user]= sponsor;\n            listf.push(Listf(sponsor ,user));\n            hasSponsor[user]=true;\n        }\n    }\n    function caculationInterest(address user, uint amount) public{\n        require(msg.sender==ownercontract, \"You not owner\");\n        uint[10] memory arrayInterest = [uint(5),4,3,2,1,1,1,1,1,1];\n        address addressuse = user;\n        for(uint i =0; i<10; i++){\n            address sponsor = addresssponsor[addressuse];\n            if(sponsor == 0x0000000000000000000000000000000000000000){\n                sponsor = owner;\n            }\n                balanceaccount[sponsor] += 7 * arrayInterest[i] * amount /1000; // 70%\n                balanceaccount30[sponsor] += 3 * arrayInterest[i] * amount /1000; // 30%\n                addressuse = sponsor;\n        }\n    }\n\n    function resetBalance(address account) public{\n         require(msg.sender==ownercontract, \"You not owner\");\n        balanceaccount[account]=0;\n    }\n    function resetBalance30(address account) public{\n         require(msg.sender==ownercontract, \"You not owner\");\n        balanceaccount30[account]=0;\n    }\n\n    function sales(address user, uint amount) public {\n        require(msg.sender==ownercontract, \"You not owner\");\n        address addressuser = user;\n        for(uint i =0; i< 10000; i++){\n            address sponsor = addresssponsor[addressuser];\n            if(sponsor != 0x0000000000000000000000000000000000000000){\n                totalsales[sponsor] = amount;\n            }else{\n                i=10000;\n            }\n            addressuser = sponsor;\n        }\n    }\n}",
  "sourcePath": "/Users/quyphan/Desktop/smartcontract/Piswap/src/contracts/Ref.sol",
  "compiler": {
    "name": "solc",
    "version": "0.5.16+commit.9c3226ce.Emscripten.clang"
  },
  "schemaVersion": "3.2.3",
  "updatedAt": "2020-11-23T17:13:52.700Z",
  "networkType": "ethereum",
  "devdoc": {
    "methods": {}
  },
  "userdoc": {
    "methods": {}
  }
}